:020000040800F2
:10000000500E0020C1010008410500083905000814
:100010003D050008910300089D0E00080000000047
:10002000000000000000000000000000850B000838
:100030009503000800000000630B0008710C000825
:10004000DB010008DB010008DB010008DB01000820
:10005000DB010008DB010008DB010008DB01000810
:10006000DB010008DB010008DB010008DB01000800
:10007000DB010008DB010008DB010008DB010008F0
:10008000DB010008DB010008DB010008DB010008E0
:10009000DB010008DB010008DB010008DB010008D0
:1000A000DB010008DB010008DB010008DB010008C0
:1000B000DB010008DB010008DB010008DB010008B0
:1000C000DB010008DB010008DB010008DB010008A0
:1000D000DB010008D50C0008DB010008DB0100088B
:1000E000DB010008DB010008DB01000800F002F87A
:1000F00000F03CF80AA090E8000C82448344AAF186
:100100000107DA4501D100F031F8AFF2090EBAE883
:100110000F0013F0010F18BFFB1A43F0010318473B
:10012000F41C0000141D0000103A24BF78C878C1E8
:10013000FAD8520724BF30C830C144BF04680C60ED
:10014000704700000023002400250026103A28BF35
:1001500078C1FBD8520728BF30C148BF0B60704739
:100160001FB500F062F81FBD10B510BD00F0DAF841
:100170001146FFF7F5FF00F093FE00F0F8F803B426
:10018000FFF7F2FF03BC00F0FDF800000B49D1F8C7
:1001900000C04A685CF8043B1068184442F8040B3D
:1001A0008C4528BFA1F1DC0C8A4228BFA1F1DC02FA
:1001B000C1F800C04A6020F000407047E807002006
:1001C0000948804709480047FEE7FEE7FEE7FEE7EB
:1001D000FEE7FEE7FEE7FEE7FEE7FEE70448054927
:1001E000054A064B70470000750C0008ED0000083A
:1001F00050080020500E0020500A0020500A002015
:100200000B4910B5A1F17C020A4CC2E93712372123
:1002100006E000EB104342F82130074B00FB03409F
:100220000B1EA1F10101F4DC10BD0120E8E7000084
:1002300088070020E119D666CD0D010040EA0103D0
:10024000024630B59B0710D14FF0013400E008C2E0
:1002500008C91D1B9D4315EAC41FF8D013F0FF0108
:1002600002F8011B0DD01B0AF8E711F8013B002B27
:1002700002F8013B05D011F8013B002B02F8013BCD
:10028000F3D130BD4FF000020429C0F0128010F00D
:10029000030C00F01E80CCF1040CBCF1020F18BF5F
:1002A00000F8012BA8BF20F8022BA1EB0C0100F0F5
:1002B00010B85FEAC17C24BF00F8012B00F8012BC5
:1002C00048BF00F8012B70477047704770474FF0E8
:1002D000000200B5134694469646203922BFA0E896
:1002E0000C50A0E80C50B1F12001BFF4F7AF0907A2
:1002F00028BFA0E80C5048BF0CC05DF804EB890093
:1003000028BF40F8042B08BF704748BF20F8022BD5
:1003100011F0804F18BF00F8012B7047004870475C
:10032000F00700207546FFF7F9FFAE460500694665
:10033000534620F00700854618B020B5FFF74EFF62
:10034000BDE820404FF000064FF000074FF00008D6
:100350004FF0000B21F00701AC46ACE8C009ACE857
:10036000C009ACE8C009ACE8C0098D46704710B5BB
:100370000446AFF300802046BDE81040FFF7FFBE03
:100380007047000001491820ABBEFEE726000200BE
:1003900000BFFEE7704700B5034603E04FF47A70F4
:1003A00000F005F8181EA3F10103F7D100BD00EB22
:1003B000C001C9004FF0E022516100219161052187
:1003C000116100BF4FF0E021096901F4803100297B
:1003D000F8D004214FF0E022116170472DE9F0417F
:1003E000024600250026002000230024002791F863
:1003F00003C00CF00F0591F803C00CF0100CBCF119
:10040000000F03D091F802C04CEA050591F800C036
:10041000BCF1000F31D0146800202BE04FF0010C2C
:100420000CFA00F3B1F800C00CEA03069E4220D19A
:1004300083004FF00F0C0CFA03F7BC4305FA03FCE2
:100440004CEA040491F803C0BCF1280F06D14FF028
:10045000010C0CFA00FCC2F814C00AE091F803C0C9
:10046000BCF1480F05D14FF0010C0CFA00FCC2F8AA
:1004700010C0401C0828D1D31460B1F800C0BCF1F2
:10048000FF0F34DD546800202EE000F1080C4FF01F
:10049000010808FA0CF3B1F800C00CEA03069E420A
:1004A00021D183004FF00F0C0CFA03F7BC4305FA7F
:1004B00003FC4CEA040491F803C0BCF1280F05D1F9
:1004C00000F1080C08FA0CF8C2F8148091F803C087
:1004D000BCF1480F07D100F1080C4FF0010808FAF1
:1004E0000CF8C2F81080401C0828CED35460BDE838
:1004F000F0810AB1016100E04161704770B50446C6
:100500000026FFF743FE642190FBF1F201FB120588
:10051000AF2C01DB761E0DE02D2C01DC012609E05D
:100520000A2D01DA012605E0142D02DA4FF0FF361C
:1005300000E00026A01970BD00BFFEE700BFFEE787
:100540007047000000200CE0002106E00022064B6E
:1005500003EBC0135A544A1CD1B28029F6DB421C6B
:10056000D0B20828F0DB7047040000202DE9F043EA
:1005700004460D4616461F46284638E0224631E01E
:10058000002A2DDB7F2A2BDC002829DB3F2827DCF3
:100590004FEAE07C00EB5C7C4FEAEC0CDFF8588023
:1005A00008EBCC1C1CF802C003464FEAE07800EBD5
:1005B00058784FEAE808A0EBC8094FF0010808FA9C
:1005C00009F82CEA080C01464FEAE07800EB58786D
:1005D0004FEAE808DFF8209009EBC81808F802C0D5
:1005E000511C0AB2A1199142CADC411C08B2E91996
:1005F0008142C3DCBDE8F083040000202DE9FF4FF9
:1006000086B0069E079CDDF82080DDF8249000204F
:10061000019000904C450FD1464502DDB24646465A
:10062000D046354605E02146284600F0A3F8681C70
:1006300005B24545F7DD99E046450FD14C4502DD51
:10064000A2464C46D146274605E03946304600F0E2
:1006500091F8781C07B24F45F7DD87E0464505DD88
:10066000B2464646D046A2464C46D1464C4507DDEA
:10067000604204B2C9F100000FFA80F90120019034
:10068000A9EB0400A8EB0601884207DDB246264626
:100690005446C246C846D14601200090A8EB060049
:1006A00000B20590A9EB04000FFA80FB4FEA4B0063
:1006B00000B203900598ABEB0000400000B202903E
:1006C0000598C0EB4B0000B20490354627460198D0
:1006D00038B1009828B1684201B2384600F04AF8B3
:1006E00012E0019828B1784201B2284600F042F8A1
:1006F0000AE0009820B12946384600F03BF803E0B4
:100700003946284600F036F82EE0681C05B20498F9
:10071000002805DADDE90310084400B2049006E081
:10072000781C07B202990498084400B2049001981A
:1007300038B1009828B1684201B2384600F01AF882
:1007400012E0019828B1784201B2284600F012F870
:100750000AE0009820B12946384600F00BF803E083
:100760003946284600F006F84545CEDB0AB0BDE81C
:10077000F08F000070B50346002B20DB7F2B1EDCC2
:1007800000291CDB3F291ADCCC1701EB5474E41060
:100790000B4D05EBC414E45C0A46CD1701EB55750F
:1007A000ED10A1EBC5060125B5402C430846CD1739
:1007B00001EB5575ED10024E06EBC515EC5470BDFE
:1007C0000400002038B5002406E0002500E06D1C80
:1007D000B5F57A7FFBD3641CB4F57A7FF5D301219C
:1007E000082000F0BFF914208DF8030003208DF8D5
:1007F00002004FF48070ADF8000069460848FFF72A
:10080000EDFD4FF40070ADF8000069460448FFF7B5
:10081000E5FD012000F066F9012000F06FF938BD18
:10082000000C014070B50546002411E080212141F3
:10083000294009B1012100E00021084600F05EF9DD
:10084000012000F04FF9002000F04CF9601CC4B208
:10085000082CEBDB012000F045F9002000F042F904
:1008600070BD10B5012000F049F9012000F03AF9FF
:10087000002000F043F9002000F034F910BD10B55D
:10088000002000F03BF9012000F02CF9012000F0DD
:1008900035F910BD10B5FFF795FFAE2000F03AF91D
:1008A000D52000F037F9802000F034F9A82000F0BE
:1008B00031F93F2000F02EF9D32000F02BF9002071
:1008C00000F028F9402000F025F9A12000F022F9DD
:1008D000C82000F01FF9DA2000F01CF9122000F007
:1008E00019F9812000F016F9CF2000F013F9D92072
:1008F00000F010F9F12000F00DF9DB2000F00AF90A
:10090000302000F007F9A42000F004F9A62000F040
:1009100001F98D2000F0FEF8142000F0FBF8AF2064
:1009200000F0F8F8FFF70EFE00F0C8F810BD10B5A3
:100930000246012000E050430B1EA1F10101FAD153
:1009400010BD70B505460C4645F0B00000F0E2F869
:10095000102141EA141000F0DDF804F00F0000F05F
:10096000D9F870BD2DE9F8430646884617461D465E
:1009700000241FE0281B411E0A20FFF7D8FFB7FB09
:10098000F0F00A21B0FBF1F201FB1209C9EB0910EA
:1009900000EBC0000949084404EBC40101EB41012C
:1009A0003144009008B226231B22414600F008F88B
:1009B000601CC4B2AC42DDDBBDE8F8837E170008E2
:1009C0002DE9FF4F80460E469146DDF834B00025F4
:1009D00000244A4631464046039BFFF7C7FD00BF4F
:1009E0005EE0002558E008EB0500002852DB08EB2C
:1009F00005007F284EDC3046F11706EB5171C91017
:100A00000FB2F11706EB5171C910A6EBC10A002E07
:100A100005DA781E07B20AF108000FFA80FA3819D1
:100A2000002817DB3819072814DC3819224901EB94
:100A3000C01008EB0501405C04FB09511BF80110D4
:100A400001FA0AF1084339191B4A02EBC11108EBFC
:100A5000050288543819401C00281BDB3819401C3B
:100A6000072817DC3819401C134901EBC01008EBAC
:100A70000501405C04FB09511BF80110CAF1080292
:100A8000114108433919491C0B4A02EBC11108EB0B
:100A900005028854681CC5B24D45A4DB601CC4B275
:100AA0000399481EC11700EB5171012202EBE101CD
:100AB000A14296DCBDE8FF8F0400002010B50024A1
:100AC0000BE000212046FFF73CFF054901EBC41075
:100AD000802100F02FF8601CC4B2082CF1DB10BD9F
:100AE0000400002010B5044622464FF480710248ED
:100AF000FFF7FFFC10BD0000000C014010B50446DC
:100B000022464FF400710248FFF7F3FC10BD0000CD
:100B1000000C014010B50446FFF7A3FE7820FFF754
:100B200081FE0020FFF77EFE2046FFF77BFEFFF7E9
:100B3000A6FE10BD70B505460E46FFF792FE782062
:100B4000FFF770FE4020FFF76DFE002404E0285DF3
:100B5000FFF768FE601CC4B2B442F8DBFFF78FFEFB
:100B600070BD704729B1064A92690243044B9A61ED
:100B700004E0034A92698243014B9A617047000086
:100B800000100240704710B500F002F810BD0000E0
:100B90000CB50020019000903348006840F480308C
:100BA0003149086000BF3048006800F40030009010
:100BB0000198401C0190009818B90198B0F5A06FF9
:100BC000F1D12948006800F4003010B101200090F4
:100BD00001E0002000900098012843D123480068DC
:100BE00040F01000214908600846006820F003002A
:100BF00008600846006840F0020008601A48406833
:100C0000194948600846406848600846406840F412
:100C1000806048600846406820F47C1048600846C0
:100C2000406840F4E81048600846006840F0807072
:100C3000086000BF0C48006800F000700028F9D080
:100C40000948406820F003000749486008464068AA
:100C500040F00200486000BF0348406800F00C000C
:100C60000828F9D10CBD000000100240002002400D
:100C70007047000010B51348006840F001001149AA
:100C8000086008464068104908400E494860084618
:100C900000680E4908400B4908600846006820F4C7
:100CA000802008600846406820F4FE0048604FF449
:100CB0001F008860FFF767FF4FF00060044908607D
:100CC00010BD0000001002400000FFF8FFFFF6FE1C
:100CD00008ED00E010B540F225514B4800F0AFF8A8
:100CE00001287CD1484800F0D4F8C4B247480078C5
:100CF000002875D0012802D002287DD11EE044488A
:100D00004449097800EBC1104349097844544248EA
:100D10000078401C404908700846007880280CDBA9
:100D2000002008703B480078401C3A49087008468B
:100D30000078082801DB002008705DE03748007863
:100D400010B1012851D10DE0232C0AD101203349E3
:100D500008700020A1F8820080213048401CFFF775
:100D600091FA46E0212C29D100212C48B0F88220AC
:100D7000401C8154401E90F8050305281ADA2749C3
:100D800091F80423843101EBC2108339FFF756FA3E
:100D9000224890F80403401C052190FBF1F201FB6E
:100DA00012001E4981F80403084690F80503401C10
:100DB00081F8050300201949087015E01748B0F8BC
:100DC00082007F280DDA1548B0F88210B0F8820052
:100DD000401C124AA2F88200501C445404E011E066
:100DE00009E000200D49087003E000200B4908705D
:100DF00000BF00BF00E000BF00BF40F22551024825
:100E000000F00EF810BD0000003801400000002086
:100E10000400002001000020020000200404002043
:100E200010B50022002340F66A14A14200D100BF91
:100E30000A1201249440A3B2DC43048010BD70B5B3
:100E40000246002400230025002040F66A16B14225
:100E500000D100BFC1F3421501F01F03012606FABD
:100E600003F3012D02D19689334006E0022D02D111
:100E7000168A334001E0968A33400C12012606FAA6
:100E800004F41688344013B10CB1012000E00020B6
:100E900070BD01468888C0F30800704700BFFEE7B8
:100EA0004B24002500BF00BFFFF7F4FCFFF74AFB0F
:100EB000FFF704FE0020FFF7A3F9642C01DB0320F9
:100EC00000E0022082460AEBCA0101EB4101C1F1B8
:100ED000800000EBD071C1F3470937E0FFF732FB28
:100EE000534622460D214846FFF73CFD002612E0FE
:100EF000AF1BA81BA0F10108B8F1000F0ADB802F7F
:100F000008DA1348C35D10F808103AB20FFA88F0F7
:100F1000FFF774FB761C332EEADBFFF7CFFD281DAD
:100F200005B2B32D0FDB00252046FFF7E7FA044694
:100F3000642C04DB4FF0030A4FF0170903E04FF075
:100F4000020A4FF025090220FFF725FAC6E7000044
:100F5000931D0008000000000000000000000000D9
:100F600000000000000000F8000000000000003356
:100F70003000000000160E00160E000000000000F9
:100F80000000000040C07840C0784000043F0404E6
:100F90003F040400007088FC08300000001820FFA7
:100FA000211E0000F008F000E018000000211C03E2
:100FB0001E211E0000F00888700000001E2123245E
:100FC00019272110000000160E000000000000008C
:100FD00000000000000000E018040200000000070C
:100FE0001820400000020418E00000000040201813
:100FF00007000000404080F0804040000202010FE6
:1010000001020200000000F0000000000101011FC9
:1010100001010100000000000000000000B07000AD
:1010200000000000000000000000000000010101BD
:10103000010101010000000000000000003030004C
:101040000000000000000000806018040060180626
:101050000100000000E010080810E000000F102060
:1010600020100F00001010F8000000000020203FAA
:101070002020000000700808088870000030282434
:1010800022213000003008888848300000182020D5
:1010900020110E000000C02010F8000000070424FA
:1010A000243F240000F8088888080800001921203F
:1010B00020110E0000E0108888180000000F112099
:1010C00020110E0000380808C83808000000003F52
:1010D000000000000070880808887000001C2221B1
:1010E00021221C0000E010080810E000000031225E
:1010F00022110F00000000C0C000000000000030FE
:1011000030000000000000C0C0000000000080B0FF
:101110007000000000008040201008000001020460
:1011200008102000404040404040400004040404B7
:101130000404040000081020408000000020100873
:1011400004020100007048080808F00000000030A8
:1011500036010000C030C828E810E0000718272436
:1011600023140B000000C038E0000000203C2302E4
:101170000227382008F8888888700000203F202047
:1011800020110E00C0300808080838000718202079
:101190002010080008F808080810E000203F202070
:1011A00020100F0008F88888E8081000203F202051
:1011B0002320180008F88888E8081000203F200045
:1011C00003000000C030080808380000071820207D
:1011D000221E020008F808000008F808203F21013C
:1011E00001213F20000808F8080800000020203FE7
:1011F0002020000000000808F8080800C080808057
:101200007F00000008F888C028180800203F20014F
:101210002638200008F8080000000000203F2020A9
:101220002020300008F8F800F8F80800203F003FC0
:10123000003F200008F830C00008F808203F2000D8
:1012400007183F00E01008080810E0000F102020E9
:1012500020100F0008F808080808F000203F2101BE
:1012600001010000E01008080810E0000F18242415
:1012700038504F0008F8888888887000203F200088
:10128000030C30200070880808083800003820213E
:1012900021221C00180808F8080818000000203F48
:1012A0002000000008F808000008F808001F2020AF
:1012B00020201F000878880000C838080000073880
:1012C0000E010000F80800F80008F800033C0700D1
:1012D000073C0300081868808068180820302C0339
:1012E000032C30200838C800C83808000000203F10
:1012F0002000000010080808C838080020382621FF
:1013000020201800000000FE020202000000007F02
:1013100040404000000C30C0000000000000000110
:101320000638C00000020202FE00000000404040FB
:101330007F000000002010080408102000000000BA
:10134000000000000000000000000000808080809D
:10135000808080800002040800000000000000007F
:10136000000000000000808080800000001924221E
:1013700022223F2008F8008080000000003F11205A
:1013800020110E000000008080800000000E11205F
:1013900020201100000000808088F800000E11203D
:1013A00020103F200000808080800000001F22224B
:1013B00022221300008080F0888888180020203FB7
:1013C000202000000000808080808000006B9494CA
:1013D0009493600008F8008080800000203F210086
:1013E00000203F2000809898000000000020203F4F
:1013F00020200000000000809898000000C080803D
:10140000807F000008F8000080808000203F2402D8
:101410002D302000000808F8000000000020203FC8
:10142000202000008080808080808000203F20007D
:101430003F20003F008080008080000000203F218E
:1014400000203F200000808080800000001F2020BE
:1014500020201F00808000808000000080FFA120ED
:1014600020110E000000008080808000000E1120FE
:1014700020A0FF80808080008080800020203F218D
:101480002000010000008080808080000033242440
:1014900024241900008080E0808000000000001FEC
:1014A000202000008080000000808000001F20209D
:1014B00020103F20808080000080808000010E305E
:1014C0000806010080800080008080800F300C03BF
:1014D0000C300F0000808000808080000020312EC2
:1014E0000E312000808080000080808080818E709E
:1014F0001806010000808080808080000021302C50
:101500002221300000000000807C02020000000068
:10151000003F404000000000FF000000000000000D
:10152000FF0000000002027C800000000040403FFD
:1015300000000000008040408000008000000000AB
:10154000000101000000000000000000002F00006A
:1015500000000700070000147F147F1400242A7F76
:101560002A120023130864620036495522500000F5
:101570000007000000001C224100000041221C0066
:101580000014083E08140008083E0808000000A0E7
:1015900060000008080808080000606000000020E3
:1015A00010080402003E5149453E0000427F4000C1
:1015B000004261514946002141454B310018141247
:1015C0007F10002745454539003C4A494930000114
:1015D0007109050300364949493600064949291E63
:1015E00000003636000000005636000000081422C5
:1015F00041000014141414140000412214080002C5
:1016000001510906003E4955592E007C1211127CE9
:10161000007F49494936003E41414122007F414116
:10162000221C007F49494941007F09090901003E08
:101630004149497A007F0808087F0000417F410046
:10164000002040413F01007F08142241007F4040BC
:101650004040007F020C027F007F0408107F003EA4
:101660004141413E007F09090906003E4151215E8A
:10167000007F091929460046494949310001017F87
:101680000101003F4040403F001F2040201F003F1D
:101690004038403F006314081463000708700807CF
:1016A00000615149454300007F41410000020408A8
:1016B0001020000041417F000004020102040040AC
:1016C000404040400000010204000020545454787F
:1016D000007F48444438003844444420003844449F
:1016E000487F00385454541800087E09010200183D
:1016F000A4A4A47C007F080404780000447D40007A
:10170000004080847D00007F102844000000417F5D
:101710004000007C04180478007C08040478003839
:101720004444443800FC242424180018242418FCC1
:10173000007C0804040800485454542000043F442A
:101740004020003C4040207C001C2040201C003CED
:101750004030403C004428102844001CA0A0A07C3D
:10176000004464544C440000087F41000000007FA6
:1017700000000000417F0800000804081008000075
:10178000C0F0F8FC7E3F1F0F0F07070707070F0F7A
:101790001F3E7EFCF8F0C00000F0FFFFFF1F0100BD
:1017A0000000000000000000000000000000011F19
:1017B000FFFFFFF0FFFFFFFF000000000000000040
:1017C0000000000000000000000000FFFFFFFF011C
:1017D0001F7FFFFCE0800000000000000000000010
:1017E00000000080E0FEFF7F1F01000000010307F2
:1017F0000F1E1E1C3838383838383C1C1E0F0F0797
:101800000301000000000000000000080E0F0F0F91
:101810000FFFFFFFFF0000000000000000000000BD
:10182000000000000000000000000000FFFFFFFFBC
:1018300000000000000000000000000000000000A8
:1018400000000000000000FFFFFFFF00000000009C
:101850000000000000000000000000000000000088
:101860000000FFFFFFFF000000000000000000007C
:10187000000000000000000000000000001F1F1F0B
:101880001F00000000000000000000000000C0E099
:10189000F8FC7C3E1F0F0F0707070707070F0F1FF6
:1018A0001F3EFEFCF8E080000E0F0F0F010000004D
:1018B00000000000000000000000000080E0FFFFCA
:1018C0007F1F00000000000000000000000000007A
:1018D00080C0E0F0F87C3E0F07030100000000002C
:1018E00000000080C0E0F0783C1E0F0703010100FB
:1018F00000000000000000000010181C1E1F1F1F29
:101900001F1E1E1E1E1E1E1E1E1E1E1E1E1E1E1EF6
:101910001E1E1E000080E0F8FCFE3E1F0F0F070792
:10192000070707070F0F1F7EFCF8F0C0000000003C
:101930000101010100000000000080808080C0C023
:10194000E0F0F87F3F1F07000000000000000000EB
:101950000000000000030303030707070F0F1E7CAE
:10196000FCF8E0801878F8F8E0C000000000000003
:10197000000000000000000080C0E0FFFFFF1F002B
:10198000000103070F0F1F1E3E3C3C3C3C3C3C3C0F
:101990001E1E1F0F0F0703010000000000000000C3
:1019A00000000000000000000080C0E0F8FCFEFF26
:1019B000FF0000000000000000000000000080C0E8
:1019C000E0F8FC7E1F0F0701FFFFFFFF0000000093
:1019D00000000080C0F0F87C3F1F0F0301000000F2
:1019E000000000FFFFFFFF00000000080C0F0F0FBA
:1019F0000F0F0F0F0F0F0F0F0F0F0F0F0F0FFFFF17
:101A0000FFFF0F0F0F0F000000000000000000009C
:101A10000000000000000000001F1F1F1F0000004A
:101A20000000000000000000C0FEFFFF1F0F0F0FAE
:101A30000F0F0F0F0F0F0F0F0F0F0F000000000001
:101A40000000F8FFFFFFC3E0E0E0E0E0E0E0E0C01E
:101A5000C080000000000000000000000703030336
:101A60000101010101010101030307070F3FFFFC11
:101A7000F8E00030F0F0F0E080000000000000002E
:101A800000000000000080C0F0FFFF7F1F0000008A
:101A900003070F0F1F1E3E3C3C3C3C3C3C3C1E1EC3
:101AA0001F0F0F07030100000000000000000000EE
:101AB000000000000080C0F0F8FC7F3F0E06000030
:101AC0000000000000000000000080C0F0F8FC7F73
:101AD0003F0F0703000000000000000000000000AE
:101AE00000E0F8FCFE3F1F0F0F0607070707070778
:101AF0000F0E1E3CFCF8F0E00000003FFFFFFFE08F
:101B0000800000000000000000000000000080E0F5
:101B1000FFFFFF3F0000000003070F0F1F1E3E3CAA
:101B20003C3C3C3C3C3C1E1E1F0F070703000000D2
:101B3000000F0F0F0F0F0F0F0F0F0F0F0F0F0F0FC4
:101B40000F0F8FCFFFFF7F1F0F030000000000006B
:101B5000000000000000000000C0F0F8FE3F1F077A
:101B600001000000000000000000000000000080F4
:101B7000E0F8FC7F1F0F03000000000000000000E1
:101B8000000000000000C0F0FCFE3F0F0701000055
:101B90000000000000000000000000000000181E0F
:101BA0003F1F0703000000000000000000000000CD
:101BB0000000000000000000C0F0F8FC7E1F0F0FC6
:101BC000070707070707070F0F1F7EFCF8F0C00085
:101BD000000000071F3F7FF8F0E0C0C080808080D9
:101BE00080C0C0E0F0F87F3F1F0F000000C0F0F899
:101BF000F83C1E0E07070303030303030307070F45
:101C00001E3C78F8F0E0803FFFFFFFE0800000001E
:101C1000000000000000000000000000C0E0FFFF26
:101C2000FF3F00000107070F1F1F1E3E3C3C3C3CCE
:101C30003C3C3C3E1E1F1F0F07030100000080E0DC
:101C4000F0F8FC3E1F1F0F070707070707070F1FC6
:101C50001F3EFCFCF8E08000003FFFFFFFC00000DB
:101C600000000000000000000000000000C0FFFFB6
:101C7000FF3F0000000003070F0F1E1E3C383838DE
:101C80003838B8D8FCFEFE7F3F0F07010000000087
:101C90000000000000000080C0F0F8FC7F3F0F074C
:101CA0000300000000000000000000000000001819
:101CB0001C3E3F0F07030000000000000000000072
:101CC00000000000A3AC00000000000000000000C5
:101CD0000000000000000000005838000000000074
:101CE00000000000000000A1A300000000000000B0
:101CF000000000000000000000000000182424186C
:101D000000000000000000000000C4A3001010D07C
:101D1000FF9014E4AFA4A4A4AFE404000004030003
:101D2000FF00894B2A1A0E1A2A4B888000C4E20051
:101D3000101010FF9000F80002041800FF000000CF
:101D40000242817F00003F108840300C0B30C00001
:101D5000000000FF01010131090909098971010130
:101D60000101FFFF8080808080809681808080805C
:101D70008080FFFF01818181FD8991A1C1FD818169
:101D80008101FFFF808080809F888482819F808086
:101D90008080FF20202020202020202020202020A4
:101DA0002020202020202020202020202020202033
:101DB0002020202020202020202020201E190F0558
:101DC00002050F19202D3A3E3A2D2320190F0A0F34
:101DD0001920283028201C1612161C202328232006
:101DE0001E202020202020202020202020202020F5
:101DF00020202020202020202020202020202020E3
:101E000020202020202020202020202020202020D2
:101E100020202000341E00080000002004000000E4
:101E200028010008381E0008040000204C0E0000A5
:081E300044010008000000005D
:04000005080000ED02
:00000001FF
