:020000040800F2
:10000000180E0020350200082D210008DB1F000813
:10001000292100085D1E000867410008000000005B
:10002000000000000000000000000000353A000859
:10003000611E000800000000E7380008413D00088C
:100040004F0200084F0200084F0200084F0200084C
:100050004F0200084F0200084F0200084F0200083C
:100060004F0200084F0200084F0200084F0200082C
:100070004F0200084F0200084F0200084F0200081C
:100080004F0200084F0200084F0200084F0200080C
:100090004F0200084F0200084F0200084F020008FC
:1000A0004F0200084F0200084F0200084F020008EC
:1000B0004F0200084F0200084F0200084F020008DC
:1000C0004F0200084F0200084F0200084F020008CC
:1000D0004F020008A53D00084F0200084F0200082B
:1000E0004F0200084F0200084F02000800F002F81B
:1000F00000F090F80AA090E8000C82448344AAF132
:100100000107DA4501D100F085F8AFF2090EBAE82F
:100110000F0013F0010F18BFFB1A43F0010318473B
:10012000CC6A0000EC6A0000103A24BF78C878C19D
:10013000FAD8520724BF30C830C144BF04680C60ED
:10014000704700000023002400250026103A28BF35
:1001500078C1FBD8520728BF30C148BF0B60704739
:100160006E2900F0E981702900F02B83662904F0E4
:100170007486652904F07186672904F06E8661290A
:1001800004F06D8603681B0A28BF41F080016929CD
:1001900000F09681642900F09381752900F0908128
:1001A0006F2900F0B882782900F0F782E92900F081
:1001B0005382E42900F05082F52900F04D82EF29A6
:1001C00000F0B582F82900F0F6820368DB0928BF49
:1001D00041F08001632900F0F987732900F0FE8760
:1001E000E32901F00980F32901F00E800020704717
:1001F0001FB501F05FF804000020002104F064F94D
:10020000401C60600020002104F048F9E0601FBD40
:1002100010B510BD01F020F81146FFF7E9FF03F01B
:10022000BFFF01F0FDF803B4FFF7F2FF03BC01F0DC
:1002300001F900000948804709480047FEE7FEE74A
:10024000FEE7FEE7FEE7FEE7FEE7FEE7FEE7FEE786
:1002500004480549054A064B70470000453D000823
:10026000ED00000818080020180E0020180A0020D1
:10027000180A00201CB50C46064B7B4469460090CA
:10028000204600F072F904460020694600F080F92B
:1002900020461CBD1303000040EA0103024630B5AE
:1002A0009B0710D14FF0013400E008C208C91D1BA4
:1002B0009D4315EAC41FF8D013F0FF0102F8011B9B
:1002C0000DD01B0AF8E711F8013B002B02F8013BA7
:1002D00005D011F8013B002B02F8013BF3D130BDF2
:1002E0004FF000020429C0F0128010F0030C00F05F
:1002F0001B80CCF1040CBCF1020F18BF00F8012BDD
:10030000A8BF20F8022BA1EB0C0100F00DB85FEAAA
:10031000C17C24BF00F8012B00F8012B48BF00F876
:10032000012B70474FF0000200B5134694469646E5
:10033000203922BFA0E80C50A0E80C50B1F12001F8
:10034000BFF4F7AF090728BFA0E80C5048BF0CC0A6
:100350005DF804EB890028BF40F8042B08BF704704
:1003600048BF20F8022B11F0804F18BF00F8012B76
:10037000704700004FF0013C50F8042B51F8043B4B
:100380009A4221D1A2EB0C03934313EACC1317D169
:1003900050F8042B51F8043B9A4215D1A2EB0C0300
:1003A000934313EACC130BD150F8042B51F8043BC0
:1003B0009A4209D1A2EB0C03934313EACC13DBD08E
:1003C0004FF00000704700BFD01A01BAB1FA81F1B6
:1003D00001F0180122FA01F0CB40C1F12001DBB29B
:1003E000C0B2C01A2CFA01F3D11A914311EAC31119
:1003F000E6D1704770477047704770B5044685690D
:100400000068C10601D5302600E02026C00707D0CD
:1004100070BDD4E9012130469047206A401C20621B
:100420006D1EF6D570BD70B5044685690078C007AD
:1004300007D170BDD4E9012120209047206A401CDB
:1004400020626D1EF6D570BD09684A0501D540B21F
:100450007047C905FCD500B2704709684A0501D547
:10046000C0B27047C905FCD580B2704770B50C4664
:100470000546012A05D02878800600D5EA690023C0
:1004800002E0012305E05B1C934202D2E05C0028FD
:10049000F9D1A869E618C01AA861286A1844286228
:1004A0002846FFF7AAFF04E0D5E9012114F8010B63
:1004B0009047B442F8D32846FFF7B5FF70BD00005F
:1004C0002DE9F0410646002410687529314616A52D
:1004D00010D0FFF7B9FF002802DA404213A507E069
:1004E00031688A0701D512A502E0490704D511A594
:1004F000012401E0FFF7B1FF00210A2206F12407E1
:1005000009E0B0FBF2FCB0FBF2F302FB1C00303060
:1005100078541846491C0028F3D123462A46304611
:10052000BDE8F04100F061BA000000002D000000BD
:100530002B0000002000000011680268006A5305CB
:1005400001D508700AE0D30501D5088006E013063E
:1005500003D5C217C1E9000200E00860012070471E
:1005600001694A1C02610878704700B58FB0CDE977
:1005700001310021059105497944CDE90310114667
:10058000684600F029F90FB000BD0000E5FFFFFF4D
:100590000A6802F8010B0A60704700002DE9FF5F4E
:1005A00015468A460446DFF8AC80F8440027D8E9AF
:1005B00000103E46CDE9001010E03AF816106A46E9
:1005C00002A800F025FE411C07D02178890603D53A
:1005D000E269391891420DD80744761C20788006CC
:1005E00002D5E069B84205DDAE42E6DB3AF8160016
:1005F0000028E2D1A069C01BA0612046FFF7FDFEE4
:10060000D8E90010CDE90010002017E03AF81810E2
:100610006A4602A800F0FCFDB0F1FF3F81460BD016
:1006200000250DF1080B05E0D4E901211BF80500B8
:1006300090476D1C4D45F7D308F10100B04280464C
:10064000E4DB206A384420622046FFF7ECFEBDE878
:10065000FF9F0000426500002DE9F0418046D21D59
:1006600022F007020025D2E90002F52915A614D0D0
:10067000011E72F1000106DA0023D0EB030063EBE8
:10068000020211A608E0D8F800108B0701D50FA6CA
:1006900002E0490701D50EA601251146002408F104
:1006A000240704E000F05CF930323A55641C50EA4B
:1006B0000102F7D12B46324621464046BDE8F041C3
:1006C00000F093B9000000002D0000002B00000096
:1006D0002000000030B4002100F1240408E002F002
:1006E0000705D208303542EA4372DB086554491CDD
:1006F00052EA0305F3D10468002310A2250707D5A9
:10070000A40600D421B1C46901230DA2641EC461F2
:1007100030BC00F06AB910B5044621461068FFF7F6
:100720009CFE02462046BDE810400023D2E7D21DC1
:1007300022F00701D1E90023CCE70000000000000F
:1007400030000000F0B40D460188090502D5214CA7
:100750007C4402E01F4C7C440E34002100F124064E
:1007600008E002F00F071209E75D42EA03721B0975
:100770007754491C52EA0307F3D102780023120789
:1007800004D5702D06D009B1022311342246F0BCE5
:1007900000F02BB901231034F8E770B504460D467C
:1007A00021461068FFF759FE024629462046BDE85B
:1007B00070400023C6E7D21D22F00703D3E90023CF
:1007C000C0E70368126843F0200303600823C36195
:1007D0000023B7E7A46300002DE9F05F89460446D3
:1007E0004FF0000ADFF874B1FB44C0F820A02046A7
:1007F000E1688847002874D0252806D0D4E9012173
:100800009047206A401C2062F1E700265F462046A0
:10081000E16888472028054607DB312D05D2781985
:1008200010F8200C08B10643F1E7B00701D526F017
:100830000406C4F81CA00027C4F818A02A2D09D06B
:10084000284603F0A6FC38B304EB8708303DC8F80F
:10085000185019E059F8041B204604EB87029161F7
:10086000E1688847012F054618D1E069002820DAA1
:1008700026F020061DE0D8F8180000EB800005EBFC
:1008800040003038C8F818002046E168884705461F
:1008900003F07FFC0028EED1012F0AD02E2D08D1C5
:1008A0002046E16888477F1C0546022F46F0200657
:1008B000C4DBA069002803DA404246F00106A061CB
:1008C000F00701D026F010066C2D0BD0682D09D052
:1008D0004C2D39D06A2D35D0742D35D07A2D33D0AA
:1008E00016E038E0E1682F4620468847B8420546C2
:1008F00009D16C2F26D04FF48060E1680643204672
:100900008847054604E06C2F1AD04FF480700643E8
:100910000DB3A5F14100192802D8203546F4006630
:100920004A462946204626604E46FFF719FC80B10C
:1009300001280BD0F61D26F0070000F1080956E744
:100940004020E4E78020D8E70020D6E706F104093C
:100950004DE7284652E7206ABDE8F09F3463000067
:1009600030B5B0F10A024FEA900E71F100034EEA81
:10097000817EB0EB0E0061EB91014FEA101E4EEA52
:10098000017E10EB0E0041EB11114FEA102E4EEAE2
:10099000016E10EB0E0041EB11214FEA104E4EEAB2
:1009A000014E10EB0E0041EB1141401841F10001E6
:1009B0004FEAD00040EA41704FEAD10110EB8005C8
:1009C0004FEA810444EA907444EB01046D1944EB4E
:1009D0000404521BA3414FF0000348BF0A3200D564
:1009E00030BD401C41F1000130BD2DE9F0470D46FE
:1009F00099469246044600F124080168880604D509
:100A0000E06921F01001216000E00120A84201DD31
:100A1000471B00E00027A1697A1902EB0900081AB8
:100A2000A0612078C00602D42046FFF7E6FC00262D
:100A300008E0D4E901211AF806009047206A401C1A
:100A4000761C20624E45F4DB2078C0060AD520468D
:100A5000FFF7D3FC06E0D4E9012130209047206A5B
:100A6000401C2062381EA7F10107F4DC07E0D4E93E
:100A7000012118F805009047206A401C2062281EBA
:100A8000A5F10105F3DC2046FFF7CDFC2078000638
:100A900002D50220BDE8F0870120FBE770472DE971
:100AA000FF4F0C461E464FF0FF378BB0D2E90001D6
:100AB000DDF860800A908A46C1F30A5505B93D46C3
:100AC000002108464FF00000BAF1000F00F440008A
:100AD00005DA00EB80004FF4400101EA50004FEAD4
:100AE0009059B9F1010F00DDB9460A9850EA4A0061
:100AF0000ED044F61050A5F2FF3545432F14B8F13F
:100B0000000F1ED07542291E1EDDC9F100021CE037
:100B1000B8F1010F4FF0000001D0302103E0F243A3
:100B200005E02154401CB042FBDB3046002200218E
:100B300021540B99C1F80880C1E900200FB0BDE82D
:100B4000F08FBD1B6D1CDEE74A4600DA694206A83D
:100B500000F0F4FB06AB93E8070003AB83E8070063
:100B600050460A9900F06DFC8DE80700A0F5005092
:100B70001F3800900398002D0ADD42F21F014A46FB
:100B80000844002303A90390684600F0D6FE09E05C
:100B9000A0F500504A461F38002303A90390684679
:100BA00000F0E0FE8DE807000004000C03D04FF0D9
:100BB000FF30410800E01046B8F1000F03D00022DA
:100BC000009215461EE0751E05D4FFF7C9FE3032AF
:100BD00062556D1EF9D5B3460122084302D00022AA
:100BE0007F1C04E02078302801D100227F1E002ADB
:100BF000099784D01DE0112D07DAFFF7B1FE3032DE
:100C000062556D1C50EA0102F5D1084302D00098EC
:100C1000C8B10EE00021681E05E0235C625C6354ED
:100C20002254401E491C8142F7DBAB46A81B401EE4
:100C30000990002004F80B000B98099AC0F808806E
:100C4000C0E9002B7AE711264FF0000857E72DE99D
:100C5000F04F88460446D21D22F0070191B0D1E939
:100C60000001CDE90A0103F080FA02460B98C00F9B
:100C700001D02D2007E02068810701D52B2002E05C
:100C8000202101EAC000032A099001D0072A05DBD0
:100C900003464146204600F011FB0BE12078800618
:100CA00001D5E06900E00620B8F1650F814606D065
:100CB000B8F1660F18D0B8F1670F70D131E000209D
:100CC000B9F1110F009001DB112301E009F10103DB
:100CD0000AAA01A90CA8FFF7E2FEDDE90C700026C4
:100CE00009F10105834647E001204B4600904FF093
:100CF00000470AAA01A90CA8FFF7D1FEDDE90DB053
:100D00000C995D46002610B909F101000D18B9EBE8
:100D1000050003D4C0F1FF3609F10105A5EB090078
:100D20002BE0B9F1010F01DA4FF001090020B9F110
:100D3000110F0090484601DD112300E003460AAA86
:100D400001A90CA8FFF7ABFEDDE90C704D460026AB
:100D50008346207800070AD4AB4500DA5D4601A837
:100D6000012D04DD411911F8011C302907D04F4530
:100D700002DA17F1040F04DA012082460FE06D1E3B
:100D8000EEE7002F02DCED1B3E4403E0781CA84296
:100D900000DD7D1CB81B00F1010A4FF000472078F0
:100DA000000703D4AA4501DB4FF0FF3A0021B7F159
:100DB000004F0DF143088DF8431024D002202B235F
:100DC000002F01DA7F422D230A21021EA0F101002B
:100DD00000DC5FB197FBF1FC97FBF1F201FB1C7C9F
:100DE00017460CF1300C08F801CDEEE7A8F1010030
:100DF00003702188090501D5452100E06521A0F196
:100E0000010800F8011C09980FA9A1EB0807FF1DB4
:100E100000B10120411901EBEA70A1693844081AB8
:100E2000401EA0612078C00602D42046FFF7E5FAF4
:100E3000099828B1D4E901219047206A401C20621A
:100E40002078C00622D52046FFF7D7FA1EE0002EF4
:100E500004DBB34502DD01A8805D00E03020D4E969
:100E600001219047206A401C2062761CAAF10100F3
:100E70005FEA000A0AD100F01DFAC0680168405C10
:100E8000D4E901219047206A401C2062281EA5F168
:100E90000105DCDC07E0D4E9012118F8010B9047DB
:100EA000206A401C2062381EA7F10107F3DC2046AF
:100EB000FFF7B9FA032011B041E600002DE9F04F29
:100EC00004460D46D21D22F0070089B0D0E90097F4
:100ED0004846394603F049F90246F80F01D02D2360
:100EE00007E02068810701D52B2302E0202101EAD9
:100EF000C0038DF820300BB1012000E00020032A50
:100F0000824601D0072A04DB2946204600F0D6F9A4
:100F10003FE12078800601D40D2500E0E569C7F3A4
:100F20000A560D2D49DA00214FEA175B08464FF0AB
:100F30000000002F00F4400007DA00EB80004FF4BF
:100F4000400100EBD07001EA60008115012901DD4C
:100F50004FF0FF3100224FEA850CBCF1180F06D389
:100F60001346ACF118004FF08052C24003E04FF43A
:100F7000801323FA0CF30CF10C0CBCF1200F04D3FA
:100F8000ACF1200C09FA0CF001E007FA0CF0002992
:100F90004FF0004801DD18B90FE00ED140450CD3E9
:100FA00019EB02095F4121B9404502D19F4329EA6B
:100FB0000209BBEB175F00D0761C2088000502D524
:100FC0007B48784402E07A487844193808AA3023EC
:100FD00002F80A30037C0AF10101002E0AF1020A2C
:100FE00053546A4602DC4FF0300101E04FF031010A
:100FF0004FF001088DF8001002D0A6F2FF3603E092
:1010000059EA470100D06B4E002D02DC2178090718
:1010100004D54FF002082E218DF80110C44600219E
:101020000BE0C7F303433F01C35C491C6D1E02F88C
:101030000830052908F1010801DA002DF1DC002152
:101040000CE000EB1973491C1B786D1E082902F88F
:1010500008304FEA091908F1010801DA002DF0DC27
:1010600021688B0602D516E0A8F10108E04505DDF0
:1010700002EB080313F8013C302BF5D0B8F1000F58
:1010800009DD02EB080313F8013C2E2B03D10907FD
:1010900001D4A8F10108002D05DD3E2102F8081059
:1010A0006D1E08F10108407C002E02F8080008F1CE
:1010B000010804DA2D20764202F8080002E02B2015
:1010C00002F808000A214FF47A70864208F10108FC
:1010D0000BDB96FBF0F3303302F8083096FBF0F3AD
:1010E00008F1010800FB136601E0642E0CDB6420AC
:1010F00096FBF0F3303302F8083096FBF0F308F17A
:10110000010800FB136601E00A2E06DB96FBF1F0F6
:10111000303002F8080008F1010896FBF1F001FBFD
:101120001060303002F80800A16908F1010808EBEE
:10113000050202EB0A00081AA0612078C00602D45A
:101140002046FFF75AF9216A08AE01EB0A00206237
:1011500004E0D4E9012116F8010B9047BAF1010A25
:10116000F7D22078C00602D52046FFF746F96E4632
:1011700009E016F8010B3E280FD0D4E90121904771
:10118000206A401C2062B8F10108F2D22046FFF725
:101190004AF909B00320BDE8F08F206A2844206294
:1011A00003E0D4E90121302090476D1EEBD3F8E72E
:1011B0007E5B000002FCFFFF10B5436913B1AFF383
:1011C000008001E0FFF752F9012010BD127800F114
:1011D00024010A7000224A700122EDE711684FF0E5
:1011E000FF32E9E710B5436913B1AFF3008001E0C6
:1011F000FFF7D4F9012010BD128800F12401828488
:101200000022C2840122EDE711684FF0FF32E9E7C6
:1012100070B516460C46054600F044F8036893F88E
:101220000101012806D0FF2C0FD8185D68B10120FC
:101230002C7070BDD3F807013246214603F2071324
:1012400003442846BDE8704018474FF0FF3070BD9A
:1012500000487047B80700207546FFF7F9FFAE4613
:1012600005006946534620F00700854618B020B5B2
:10127000FEF7EEFFBDE820404FF000064FF00007FC
:101280004FF000084FF0000B21F00701AC46ACE82E
:10129000C009ACE8C009ACE8C009ACE8C0098D469B
:1012A0007047000010B500F005F8001D10BD00BF2C
:1012B0001932000000487047D80700202DE9F0419E
:1012C0001F46044603260168072A01F4006004DB78
:1012D00008B116A505E016A503E008B115A500E0C4
:1012E00015A521F010002060A069C01EA0610FB1FB
:1012F000401EA0612046FFF780F84FB1D4E90121DC
:1013000038469047206A401C2062C01C206206E0DC
:10131000206AFAE7D4E9012115F8010B9047761EFF
:10132000F8D22046FFF77FF8BDE8F0814E414E002D
:101330006E616E00494E4600696E66002DE9F04709
:10134000814616468AB0354878440DC88DE80D00B0
:1013500032487844801C03AC0DC884E80D0041F687
:101360009B300844372190FBF1F290FBF1F5A5F199
:10137000800501FB12041B3C02D56442012000E001
:101380000020DFF898A080460027FA44AAF1BE0AA0
:101390000EE0E0070AD03246684607EB470101231A
:1013A0000AEB810100F0DEFA8DE8070064107F1C73
:1013B000002CEED1194F7F44AE3F19E0E80715D05D
:1013C00007EB04100DF1180A90E80E008AE80E00F1
:1013D000C068F04201D1981908903246012306A94D
:1013E00003A800F0BFFA03AB83E807006D10641C8C
:1013F000002DE3D14FF0010332466946B8F1000FEA
:1014000003A802D000F099FA01E000F0ABFAC9E9B4
:101410000001C9F808200AB0BDE8F087885800002C
:1014200010B50446AFF300802046BDE81040FEF73B
:10143000FABE000001491820ABBEFEE726000200FC
:1014400070475FEA400C08BF91F0000F4FEA8C2311
:101450004FEAC12243EA51514FEA1C5018BF00F530
:10146000F0404FEA300018BF41F000415FEA6C5C89
:1014700000F02980BCF1FF3F08BF40F0804070477A
:10148000130C06BF12044FF0100C4FF0000C130E9B
:1014900004BF12020CF1080C130F04BF12010CF16F
:1014A000040C930F04BF92000CF1020CD30F04BF85
:1014B00052000CF1010C11464FF00002A0F11F0088
:1014C000A0EB0C00704711F0004F08BF704731F0DF
:1014D00000413FF4D5AF0B0C06BF09044FF0100CD0
:1014E0004FF0000C0B0E04BF09020CF1080C0B0F9F
:1014F00004BF09010CF1040C8B0F04BF89000CF12F
:10150000020CCB0F04BF49000CF1010CCCF12003FD
:10151000A0EB0C0022FA03F302FA0CF241EA0301F9
:1015200000F10100704720F07F4C80EA030023F0B7
:101530007F47ACEB070303F57C5300F0004003F159
:10154000FF032DE980494FEA154B09B44FEA1443D4
:1015500025EA0B4E24EA03480FF2042606EB132774
:1015600049083E785FEA320203FB0667C7F50007C9
:1015700007FB06F64FEA54374FEAD64606F1020655
:1015800007FB066CCCF1005C4FEA1C472CEA074CC9
:1015900007FB06F40CFB06F504EB15464FEA96161E
:1015A00034BF00204FF000404FEAD13706FB07FC64
:1015B0004FEA1C4C0CFB0BF7D21B03FB0CF761EB47
:1015C00007010CFB0EF7B0EB074072EB17420CFB68
:1015D00008F734BFA2EB0742B2EB074261EB1741B9
:1015E0004FEA0C444FEA910706FB07FC4FEA1C4CFC
:1015F0000CFB0BF7B0EBC74072EB573203FB0CF759
:1016000034BFA2EBC742B2EBC74261EB57310CFBD0
:101610000EF7B0EBC70072EB57720CFB08F734BF44
:10162000A2EBC702B2EBC70261EB5771039F4FEA0F
:10163000816141EA921104EBCC044FEAD1374FEAC1
:10164000826206FB07FC42EA90124FEA80604FEA92
:101650001C4C0CFB0BF7D21B03FB0CF761EB0701D7
:101660000CFB0EF7B0EB074072EB17420CFB08F7D0
:1016700034BFA2EB0742B2EB074261EB17414FEADE
:101680008C554FEA910704EB9C2406FB07FC4FEABC
:101690001C4C0CFB0BF7B0EBC74072EB573203FB53
:1016A0000CF734BFA2EBC742B2EBC74261EB573134
:1016B0000CFB0EF7B0EBC70072EB57720CFB08F790
:1016C00034BFA2EBC702B2EBC70261EB577115EB57
:1016D0004C254FEA816141EA92114FEA82624FEA5A
:1016E000D13742EA901206FB07FC44F100044FEAAE
:1016F00080604FEA1C4C0CFB0BF7D21B03FB0CF772
:1017000061EB07010CFB0EF7B0EB074072EB1742E1
:101710000CFB08F734BFA2EB0742B2EB074261EBC8
:10172000174115EB1C154FEA813141EA92414FEA0E
:10173000823242EA90424FEA80304FEA0C7644F11E
:10174000000448EA03434EEA0B484FF0000EB2EBA8
:10175000080C71EB030724BF624639464EEB0E0EB0
:101760004FF0000B0018524149414BEB0B0BB2EB11
:10177000080C71EB03077BF1000B24BF624639466E
:101780004EEB0E0E4FF0000B0018524149414BEB4F
:101790000B0BB2EB080C71EB03077BF1000B24BFC2
:1017A000624639464EEB0E0E51EA020718BF46F06C
:1017B000010616EB0E7655F1000254F1000103D537
:1017C000BDE88901BDE80088BDE88901BDE80048A1
:1017D000B619524141EB0101A3F10103704780802A
:1017E0007F7E7D7C7B7A797877767675747372717B
:1017F00071706F6E6E6D6C6C6B6A6A696868676633
:1018000066656464636362616160605F5F5E5E5DC4
:101810005D5C5C5B5B5A5A59595858575756565538
:1018200055555454535352525251515050504F4F9A
:101830004F4E4E4D4D4D4C4C4C4B4B4B4A4A4A49EA
:10184000494948484847474747464646454545442D
:101850004444444343434342424242414141002BBA
:101860009C4630D477002BD01CB54FEA370703B421
:101870004FF010004FF01001BAF1000F06D0BCF18C
:10188000000FDCBF40F0080040F008014FF00000FE
:101890000FBCBDE810400BF1010BBBF1010F08BFFD
:1018A0005FEA170722BF12F1010211F101014FF0A7
:1018B000004143F1000300F0004043EA000070479C
:1018C000F9D35708D0E746EA064613F1400F4FEA2E
:1018D00016461FDD13F1200FDFBF16430A46002115
:1018E00020335B42BED0C3F1200746EA064602FA27
:1018F00007F74FEA164646EA0706C3F1200722FA21
:1019000003F201FA07F721FA03F14FF0000342EA6C
:101910000702A7E746EA020646EA06464FEA1646E7
:1019200046EA0106BCBF46EA0646360C4FF0000305
:101930004FF000024FF0000194E72DE9804C9A46E9
:10194000934670B491E8380007C831EA400C48BFAC
:1019500034EA430C03D5FFF7E6FDFFF780FFF0BC48
:10196000BDE8008C2DE9804C9A46934670B491E80E
:10197000380007C810F0804F08BF13F0804F03D124
:1019800000F005F8FFF76BFFF0BCBDE8008C20F01D
:101990007F4780EA030023F07F4C07EB0C03A3F59D
:1019A0007C5300F00040A3F1FE0392F0000F00F022
:1019B000B38095F0000F00F077802DE901494FEAE0
:1019C00011404FEA144621EA004800FB06FC24EAD5
:1019D000064708FB06F607FB08F800FB07F718EBBD
:1019E00006484CEB164C4FEA124B18EB07484FEAEF
:1019F00015464CEB174022EA0B4E0BFB06FC25EA82
:101A000006470EFB06F607FB0EFE0BFB07F71EEB69
:101A1000064E4CEB164C4FF000061EEB074E4CEBFF
:101A2000174B18EB0B0840F1000018EB0E0B58EBAE
:101A3000000840F100008F1A4FF000013CBFC9437D
:101A4000661B14BFB5EB040C00213CBFC943F61B59
:101A50004FEA17444EEA8E0E27EA04454FEA1C4728
:101A600004FB07622CEA074C05FB07F70CFB05F6A5
:101A700004FB0CFC16EB074642EB174216EB0C4638
:101A800042EB1C421BEB060658EB0202414146EAC0
:101A90009E0601D5BDE80189B619524141EB01010D
:101AA000A3F10103BDE801894FEA14454FEA11474C
:101AB00024EA054621EA074C05FB07F406FB07F775
:101AC0000CFB06F105FB0CFC11EB074144EB174442
:101AD0004FEA124711EB0C4144EB1C4422EA074C3D
:101AE00005FB07F206FB07F70CFB06F605FB0CFCF3
:101AF00016EB074642EB174216EB0C4642EB1C4531
:101B00006A1854F1000148BF7047B619524141EBC1
:101B10000101A3F10103704795F0000F37D04FEAA0
:101B200011424FEA144721EA024624EA074C02FB1D
:101B300007F106FB07F70CFB06F402FB0CFC14EBA9
:101B4000074441EB17414FEA154714EB0C4441EBB6
:101B50001C4125EA074C02FB07F506FB07F70CFBC7
:101B600006F602FB0CFC16EB074645EB174516EB99
:101B70000C4645EB1C42121951F1000148BF704759
:101B8000B619524141EB0101A3F1010370474FEA3D
:101B900014454FEA114724EA054621EA074C05FBA4
:101BA00007F106FB07F70CFB06F24FF0000605FBFA
:101BB0000CFC12EB074241EB174112EB0C4251EBCC
:101BC0001C4148BF7047921841EB0101A3F101038A
:101BD000704721B1826842F00102826003E08268AE
:101BE00022F0010282607047014600208A6802F0FC
:101BF00004020AB1012000E0002070470146C86CD1
:101C000080B270470246002013680B400BB10120E0
:101C100000E000207047014600208A6802F00802B8
:101C20000AB1012000E000207047000030B50246F4
:101C30000020002350680F4C20400D790C6844EAC6
:101C400005242043506090680B4C2040D1E9025499
:101C50002C434D7944EA450420439060D06A20F437
:101C600070000C7C641EE4B2234340EA0350D0624F
:101C700030BD0000FFFEF0FFFDF7F1FFF0B50446B8
:101C80000D4600200021092D11DDE068A5F10A06AE
:101C900006EB4607072606FA07F18843A5F10A0670
:101CA00006EB460603FA06F10843E0600CE0206903
:101CB00005EB4507072606FA07F1884305EB4506BD
:101CC00003FA06F108432061072A0FDA606B561EFB
:101CD00006EB86071F2606FA07F18843561E06EB19
:101CE000860605FA06F10843606322E00D2A0FDA42
:101CF000206BD61F06EB86071F2606FA07F18843DE
:101D0000D61F06EB860605FA06F10843206310E0AD
:101D1000E06AA2F10D0606EB86071F2606FA07F118
:101D20008843A2F10D0606EB860605FA06F1084384
:101D3000E062F0BD816841F008018160704721B127
:101D4000826842F4A002826003E0826822F4A0026A
:101D500082607047816841F0040181607047000033
:101D600010B504460523012221460948FFF786FFE6
:101D700001210748FFF7E3FF00BF02210448FFF7F6
:101D800041FF0028F9D00248FFF738FF10BD0000DE
:101D90000024014000B587B00121480201F0C0FDD8
:101DA0000121042001F0BCFD0121082001F0B8FD53
:101DB0000121102001F0B4FD4FF4004001F094FD2A
:101DC00000208DF81B000120ADF8180003208DF8CD
:101DD0001A0006A91D4800F067F80120ADF81800A8
:101DE00006A91B4800F060F80120ADF8180006A90C
:101DF000184800F059F80020019004904FF460203A
:101E0000039000208DF809008DF8080001208DF85E
:101E1000140001A91048FFF709FF01210E48FFF740
:101E2000D8FE0D48FFF786FF00BF0B48FFF7F3FE13
:101E30000128FAD00848FFF78DFF00BF0648FFF7DA
:101E4000D3FE0128FAD007B000BD00000008014011
:101E5000000C0140001001400024014000BFFEE7DB
:101E6000704700B5034603E04FF47A7000F005F8C0
:101E7000181EA3F10103F7D100BD00EBC001C9009A
:101E80004FF0E0225161002191610521116100BFF5
:101E90004FF0E021096901F480310029F8D00421D4
:101EA0004FF0E022116170472DE9F0410246002514
:101EB0000026002000230024002791F803C00CF026
:101EC0000F0591F803C00CF0100CBCF1000F03D00B
:101ED00091F802C04CEA050591F800C0BCF1000F72
:101EE00031D0146800202BE04FF0010C0CFA00F305
:101EF000B1F800C00CEA03069E4220D183004FF0E7
:101F00000F0C0CFA03F7BC4305FA03FC4CEA04047B
:101F100091F803C0BCF1280F06D14FF0010C0CFA68
:101F200000FCC2F814C00AE091F803C0BCF1480FED
:101F300005D14FF0010C0CFA00FCC2F810C0401C97
:101F40000828D1D31460B1F800C0BCF1FF0F34DD14
:101F5000546800202EE000F1080C4FF0010808FA48
:101F60000CF3B1F800C00CEA03069E4221D18300B5
:101F70004FF00F0C0CFA03F7BC4305FA03FC4CEAD4
:101F8000040491F803C0BCF1280F05D100F1080C3E
:101F900008FA0CF8C2F8148091F803C0BCF1480F9D
:101FA00007D100F1080C4FF0010808FA0CF8C2F84C
:101FB0001080401C0828CED35460BDE8F081024652
:101FC000002093680B400BB1012000E00020704717
:101FD0000AB1016100E04161704700BFFEE7000007
:101FE00010B5002440213E48FFF7E9FF68B91420EE
:101FF000FFF737FF00BF40213948FFF7E0FF002817
:10200000F9D01420FFF72DFF012480213448FFF779
:10201000D6FF68B91420FFF724FF00BF80213048A5
:10202000FFF7CDFF0028F9D01420FFF71AFF022494
:102030004FF480712A48FFF7C2FF70B91420FFF7F0
:1020400010FF00BF4FF480712548FFF7B8FF00284C
:10205000F8D01420FFF705FF03244FF40071204847
:10206000FFF7ADFF70B91420FFF7FBFE00BF4FF480
:1020700000711B48FFF7A3FF0028F8D01420FFF7DA
:10208000F0FE04244FF400511548FFF798FF70B993
:102090001420FFF7E6FE00BF4FF400511048FFF791
:1020A0008EFF0028F8D01420FFF7DBFE05244FF444
:1020B00080410B48FFF783FF01280ED11420FFF762
:1020C000D0FE00BF4FF480410548FFF778FF01289C
:1020D000F8D01420FFF7C5FE0624204610BD0000EE
:1020E0000010014008B50121102001F019FC482022
:1020F0008DF803004FF40F50ADF8000003208DF869
:10210000020069460748FFF7CFFE28208DF803003C
:102110004FF48040ADF8000069460248FFF7C4FE66
:1021200008BD00000010014000BFFEE7704700003E
:1021300070B5002100230F22C47804B3154C246825
:1021400004F4E064C4F5E064210AC1F10403CA4068
:10215000447804FA03F184781440214309010E4CB9
:102160000678A155047804F01F050124AC400578D9
:102170006D11AD0005F1E025C5F8004109E00478D6
:1021800004F01F050124AC40044D0678761145F893
:10219000264070BD0CED00E000E400E080E100E0CE
:1021A00002490143024A1160704700000000FA052D
:1021B0000CED00E000200CE0002106E00022064BC0
:1021C00003EBC0135A544A1CD1B28029F6DB421CDF
:1021D000D0B20828F0DB7047300000202DE9F04332
:1021E00004460D4616461F46284638E0224631E092
:1021F000002A2DDB7F2A2BDC002829DB3F2827DC67
:102200004FEAE07C00EB5C7C4FEAEC0CDFF8588096
:1022100008EBCC1C1CF802C003464FEAE07800EB48
:1022200058784FEAE808A0EBC8094FF0010808FA0F
:1022300009F82CEA080C01464FEAE07800EB5878E0
:102240004FEAE808DFF8209009EBC81808F802C048
:10225000511C0AB2A1199142CADC411C08B2E91909
:102260008142C3DCBDE8F083300000202DE9FF4F40
:1022700086B0069E079CDDF82080DDF824900020C3
:10228000019000904C450FD1464502DDB2464646CE
:10229000D046354605E02146284600F0E1F8681CA6
:1022A00005B24545F7DD99E046450FD14C4502DDC5
:1022B000A2464C46D146274605E03946304600F056
:1022C000CFF8781C07B24F45F7DD87E0464505DDBE
:1022D000B2464646D046A2464C46D1464C4507DD5E
:1022E000604204B2C9F100000FFA80F901200190A8
:1022F000A9EB0400A8EB0601884207DDB24626469A
:102300005446C246C846D14601200090A8EB0600BC
:1023100000B20590A9EB04000FFA80FB4FEA4B00D6
:1023200000B203900598ABEB0000400000B20290B1
:102330000598C0EB4B0000B2049035462746019843
:1023400038B1009828B1684201B2384600F088F8E8
:1023500012E0019828B1784201B2284600F080F8D6
:102360000AE0009820B12946384600F079F803E0E9
:102370003946284600F074F82EE0681C05B204982F
:10238000002805DADDE90310084400B2049006E0F5
:10239000781C07B202990498084400B2049001988E
:1023A00038B1009828B1684201B2384600F058F8B8
:1023B00012E0019828B1784201B2284600F050F8A6
:1023C0000AE0009820B12946384600F049F803E0B9
:1023D0003946284600F044F84545CEDB0AB0BDE852
:1023E000F08F000008B5184814231A4616210090F3
:1023F000002001F0D9F8154814231A461621009040
:10240000152001F0D1F8124814231A461621009025
:102410002A2001F0C9F80F4814231A46162100900B
:102420003F2001F0C1F80C4814231A4616210090F1
:10243000542001F0B9F8094814231A4616210090D7
:10244000692001F0B1F808BD93650008CF65000868
:102450000B6600084766000883660008BF66000830
:1024600070B50346002B20DB7F2B1EDC00291CDB14
:102470003F291ADCCC1701EB5474E4100B4D05EB2B
:10248000C414E45C0A46CD1701EB5575ED10A1EBC1
:10249000C5060125B5402C430846CD1701EB5575FF
:1024A000ED10024E06EBC515EC5470BD3000002057
:1024B0003EB50446072C05D2DFE804F004051E37BC
:1024C0005069820095E00120082111220B46CDE9D8
:1024D0000021029003220E210A2000F0D9F90823DE
:1024E00045A22C21232001F0DDF814231A461621E1
:1024F000002000F0C1FF7CE00120082126220B46CD
:10250000CDE90021029018220E211F2000F0C0F911
:1025100008233CA22C21232001F0C4F814231A46DE
:102520001621152000F0A8FF63E0012008213B22BE
:102530000B46CDE9002102902D220E21342000F01F
:10254000A7F9082332A22C21322001F0ABF8142382
:102550001A4616212A2000F08FFF4AE001200821A8
:1025600050220B46CDE90021029042220E21492043
:1025700000F08EF9082328A22C21372001F092F8D0
:1025800014231A4616213F2000F076FF31E0012087
:10259000082165220B46CDE90021029057220E2129
:1025A0005E2000F075F908231CA22C21322001F0D6
:1025B00079F814231A461621542000F05DFF18E024
:1025C000012008217A220B46CDE9002102906C22DD
:1025D0000E21732000F05CF9082312A22C21232085
:1025E00001F060F814231A461621692000F044FF18
:1025F00000BF00BF3EBD00004144C4A3C4E2C1BF50
:1026000000000000CAFDD7D6B2A8D0CE000000005E
:10261000CFE0B2E1000000004C454400D3CECFB77C
:1026200000000000B4AEBFDABFD8D6C6000000007C
:1026300038B5044606235EA20121084601F032F8AF
:10264000072C73D2DFE804F0AD042B4A5F738600D9
:102650005B4828231E220A210090012000F0A4FFDD
:10266000082358A20E21242001F01CF8082358A2A8
:102670002121242001F016F8062357A221215320FE
:1026800001F010F8062356A22A214B2001F00AF887
:10269000062356A23721012001F004F886E0082322
:1026A00055A20E21002000F0FDFF212376221946BD
:1026B0000020FFF7DBFD06234CA23721012000F0AC
:1026C000F1FF062350A22C213C2000F0EBFF062353
:1026D00050A23721422000F0E5FF67E0082350A216
:1026E0000F211E2000F0DEFF504826231A461E212F
:1026F0000090282000F058FF06233CA2372101203B
:1027000000F0D0FF52E0082349A20F211E2000F064
:10271000C9FF082348A223210A2000F0C3FF062393
:1027200047A23721012000F0BDFF3FE039E0082338
:1027300046A20F211E2000F0B5FF082345A2232149
:10274000012000F0AFFF062328A23721012000F06E
:10275000A9FF2BE0082344A20F21012000F0A2FFD3
:10276000062344A22321012000F09CFF062344A25B
:102770002C21012000F096FF102340220F21012080
:1027800000F07AFE414828233222142100904D2087
:1027900000F00AFF062315A23721012000F082FF76
:1027A00004E0FFF707FD00F053FE00BF00BF38BD97
:1027B0003C3C206261636B3A6B657932000000003B
:1027C00035690008C7EBD5D5CDBCC1ACBDD3000081
:1027D000B7B6CEA73A000000302D343039360000AD
:1027E00028302D332E33762900000000656E746585
:1027F000723A6B6579310000CAFDD7D6BFAAB9D845
:10280000B2A8D0CE000000004C4F575F6F6E3A5018
:102810004331330055505F6F6E3A504331340000FE
:10282000CFE0B2E12076312E30000000FB660008D8
:102830004C4544BFD8D6C600B4FDCDEAC9C6000099
:102840007377746963683A6B65793100D0A1D3CE30
:10285000CFB70000B8FCB6E0D5FDD4DABFAAB7A266
:10286000D6D02E2E00000000B4AEBFDABFD8D6C638
:1028700000000000504139285258292D54580000BA
:1028800050413130285458292D525800CB69000846
:102890002DE9FF4F87B014461D46DDE91467DDF8CA
:1028A0001C80DDF82090DDF81C80CDF81880DDF864
:1028B0002090CB46DDF81C80ADF80C80ADF80E40C2
:1028C000ADF81060DDF82090ADF80490ADF806503A
:1028D000ADF80870169890B92B462246DDE907013D
:1028E000FFF7C4FC3B463246DDE90701FFF7BEFCBB
:1028F0003B46324629462046FFF7B8FC39E04445BE
:1029000000DAA046464500DAB0464D4500DAA94651
:102910004F4500DAB9460698844200DD06940698D1
:10292000864200DD06965D4500DDAB465F4500DD75
:10293000BB46C2461AE0CDF8149010E00598534605
:1029400001AA03A90090032000F087FF18B15046A8
:102950000599FFF785FD0598401C00B20590059884
:102960005845EBDD0AF101000FFA80FA069882451E
:10297000E1DD0BB0BDE8F08F38B5002406E000259E
:1029800000E06D1CB5F57A7FFBD3641CB4F57A7F4B
:10299000F5D30121082000F0C3FF14208DF80300B7
:1029A00003208DF802004FF48070ADF800006946F6
:1029B0000848FFF779FA4FF40070ADF80000694657
:1029C0000448FFF771FA012000F008FF012000F031
:1029D00011FF38BD000C01402DE9F04F9FB00646B5
:1029E000FE48007800287CD0072E7BD2DFE816F066
:1029F0007A0007000001A00175029602E902F7487B
:102A0000007801286FD1FFF7D5FB0623F4A201213E
:102A1000084600F047FEE8E0FFF7E2FAEF490870E9
:102A200008460078F2A30622012100907A2000F0E7
:102A3000F5FC00F0BFFE0020FFF792F9ED49088099
:102A40000820FFF78DF9EC4908800A20FFF788F984
:102A5000EA490880EAA306220C210A2000F0DEFCE5
:102A6000E4480088E7A3082214210090042000F025
:102A7000D5FCE048008802F035F88246E34901F0D1
:102A80004FFF814601F0B2FE07464FF06632E04B41
:102A900001F078FDDFA30822CDE900012521012006
:102AA00000F0BCFCDDA3062238210A2000F0B6FCB1
:102AB000DBA306220C21372000F0B0FCCE480088B2
:102AC000D0A3082214210090312000F0A7FCCA48AE
:102AD000008802F007F88246CC4901F021FF8146C8
:102AE00002E008E302E382E001F080FE07464FF0D7
:102AF0006632C74B01F046FDC6A30822CDE90001AE
:102B000025212C2000F08AFCC6A30622382137207C
:102B100000F084FCC4A306220C21612000F07EFC9E
:102B2000B6480088B7A30822142100905C2000F06A
:102B300075FCB248008801F0D5FF8246B34901F028
:102B4000EFFE814601F052FE07464FF06632B04B71
:102B500001F018FDAFA30822CDE90001252157207F
:102B600000F05CFCB1A306223821612000F056FC85
:102B70000A237F2219460020FFF778FB3F237F229C
:102B800019460020FFF772FB13237F221421002037
:102B9000FFF76CFB24237F2219460020FFF766FB1A
:102BA00037237F2219460020FFF760FB40230022D5
:102BB0000A211046FFF75AFB3F237F220A211046C5
:102BC000FFF754FB3F232A220A211046FFF74EFB52
:102BD0003F2355220A211046FFF748FB00F0EAFD8B
:102BE0007E480078022800D100E015E700BF7EE2B1
:102BF0007A480078012872D1FFF7DCFA062378A220
:102C00000121084600F04EFD2A23762219460A20AB
:102C1000FFF72CFB3B230A2219211046FFF726FB66
:102C2000062383A21921022000F03CFD062381A285
:102C30002A21022000F036FD6C2104A8FDF772FB6A
:102C400000250120039002906EE0FFF7C9F9634967
:102C500008700846007866A30622012100907A20B9
:102C600000F0DCFB002015E05C490978052903D061
:102C70005A490978062901D1012100E0002104AA5E
:102C80005155691C6C2291FBF2F302FB1311CDB27A
:102C9000411CC8B20128E7DB22236C2219210A203B
:102CA000FFF79CFA00242DE028196C2190FBF1F22B
:102CB00001FB1200C7B22819401C90FBF1F201FB86
:102CC000120000F0FF0804F10A0000F0FF09401CA8
:102CD00000F0FF0A04A8C05D10B1192001E026E051
:102CE0002A20834604A810F8080008B1192000E043
:102CF0002A200190524659464846019BFFF7B6FAF2
:102D0000601CC4B26B2CCFDB06234BA236211920EA
:102D100000F0C8FC00F04EFD30480078022800D1D9
:102D200003E00120FFF79DF88FE700BF00BFDEE161
:102D30002A48007801284FD1FFF73CFA062328A241
:102D40000121084600F0AEFC2A23762219460A200B
:102D5000FFF78CFA3B230A2219211046FFF786FA67
:102D6000062333A21921022000F09CFC062331A285
:102D70002A21022000F096FC6C2104A8FDF7D2FA6B
:102D800000250220039005200290A2E0FFF728F919
:102D9000124908700846007815A306220121009008
:102DA0007A2000F03BFB002010E00C49097809B1C3
:102DB000012100E0002104AA5155691C6C2291FBFD
:102DC000F2F302FB1311CDB2411CC8B20228ECDBB6
:102DD00022236C22192137E07EE000001800002039
:102DE0003C3C4F46463A6B327C7C4F4E3A6B31004E
:102DF00025640000280000202A0000202C0000206C
:102E000041443100253034640000000000F07F456B
:102E100066660A40252E326676000000504130007A
:102E200041443200504230004144330050433000AE
:102E300031000000300000003C2D3C2D3C2D3C2D8D
:102E40003C2D3C2D3C0000000A20FFF7C7F9002470
:102E50002CE028196C2190FBF1F201FB1200C7B2A3
:102E60002819401C90FBF1F201FB120000F0FF0852
:102E700004F10A0000F0FF09401CC0B2019004A850
:102E8000C05D08B1192000E02A20824604A810F88D
:102E9000080008B1192000E02A2083465B4651460D
:102EA0004846019AFFF7E2F9601CC4B26B2CD0DBF4
:102EB0000623AFF27C023621192000F0F3FB00F06C
:102EC00079FC8E480078022800D103E00520FEF747
:102ED000C8FF5BE700BF00BF09E188480078012810
:102EE0001BD18748007808B9012000E00020844900
:102EF0000870082383A223210A2000F0D3FB804816
:102F0000007808B181A000E082A0024608232321B6
:102F1000322000F0C7FB00F04DFCE8E07748007875
:102F200001284DD100F0CEFDFFF744F90623AFF2A2
:102F300050120121084600F0B5FB082377A20F21AB
:102F4000142000F0AFFB082377A222214B2000F0D1
:102F5000A9FB062376A23621502000F0A3FB3F23D5
:102F6000442222211046FFF781F900F023FC0BE0F8
:102F7000FFF736F86149087008460078042803D145
:102F800001206D49086000E0F2E700BF16E0FFF79E
:102F900027F85A49087068480068012802D100F0F3
:102FA00009FC03E06448006800B908E05348007871
:102FB000022803D100206049086000E0E7E700BF75
:102FC00095E04E48007801287AD100F07BFDFFF7AC
:102FD000F1F80623AFF2F8120121084600F062FB77
:102FE000082356A20F21142000F05CFB082356A2F0
:102FF0002221012000F056FB062356A23621012093
:1030000000F050FB082355A222214B2000F04AFB80
:10301000062347A23621502000F044FB3F234422E0
:1030200022211046FFF722F900F0C4FB27E0FEF74B
:10303000D7FF3249087008460078032809D10120DB
:1030400000F0B6FD47A000F0A5FD01205149087031
:1030500016E02A480078042809D1022000F0A8FDD3
:103060004DA000F097FD02204A49087008E023486F
:103070000078022803D103204649087000E0D6E713
:1030800000BF30E0FEF7ACFF1C49087041480078F3
:10309000012802D100F08EFB18E03E48007802289B
:1030A0000FD1484800F0E2FC01280FD146A000F003
:1030B00071FD444800F06EFD47A000F06BFD05E097
:1030C00013E034480078032800D10DE00B48007865
:1030D000022808D100F0B0FC002000F069FD0020BB
:1030E0002C49087000E0CDE700BF00E000BF00BF42
:1030F0000020024908701FB0BDE8F08F18000020C2
:103100002F0000204C4544313A200000BFAAC6F4ED
:1031100000000000B9D8B1D500000000C7EBD1A174
:10312000D4F1D3CECFB70000416C697961000000C3
:103130006B6579343E3E00001C000020C7EBD1A136
:10314000D4F1C4A3CABD0000CAD3C6B5CDB6C6C1AA
:10315000000000003C3C6B6579330000CAFDBEDD19
:10316000D6A10000B5B1C7B0C4A3CABDA3BA4F4C25
:103170004544CFD4B4E6C4A3CABDA3A8BDD3CAD521
:10318000CAFDBEDDD6B1BDD3CFD4CABEA3A90D0A38
:10319000000000001A000020B5B1C7B0C4A3CABD2A
:1031A000A3BA2321D6A1C4A3CABDA3A8BDD3CAD59F
:1031B000232E2E2E21B8F1CABDCAFDBEDDA3A90D56
:1031C0000A00000036070020CAD5B5BDD6A1CAFD49
:1031D000BEDDA3BA000000000D0A000070B5054670
:1031E000002411E080212141294009B1012100E0A2
:1031F0000021084600F0FEFA012000F0EFFA00205E
:1032000000F0ECFA601CC4B2082CEBDB012000F0EB
:10321000E5FA002000F0E2FA70BD10B5012000F0E0
:10322000E9FA012000F0DAFA002000F0E3FA0020C9
:1032300000F0D4FA10BD10B5002000F0DBFA012038
:1032400000F0CCFA012000F0D5FA10BD10B5FFF760
:1032500093FBAE2000F0DAFAD52000F0D7FA8020F8
:1032600000F0D4FAA82000F0D1FA3F2000F0CEFA06
:10327000D32000F0CBFA002000F0C8FA402000F084
:10328000C5FAA12000F0C2FAC82000F0BFFADA2087
:1032900000F0BCFA122000F0B9FA812000F0B6FA72
:1032A000CF2000F0B3FAD92000F0B0FAF12000F0FE
:1032B000ADFADB2000F0AAFA302000F0A7FAA42033
:1032C00000F0A4FAA62000F0A1FA8D2000F09EFAEA
:1032D000142000F09BFAAF2000F098FAFEF76AFF86
:1032E00000F068FA10BD00002DE9FE4366E00823F7
:1032F000802219460020FEF771FF102380222C2126
:103300000020FEF76BFFFFF76DF83D4801683D4870
:10331000006801F02DFD80463B49404601F02AFC43
:103320000446204601F062FA21F0004105460022E1
:10333000364B01F0EBF80AD20021404601F0E6FCE2
:1033400002D24FF07C5001E04FF03F40044621464E
:103350002B48006801F076FA294908602C4800786B
:10336000012825DB2A480078062821DC2949244841
:10337000006801F067FA814601F094FBC5B2264966
:103380001F48006801F0F4FC814601F08BFBC6B2D7
:103390001B48006801F086FBC7B2012008210B46DC
:1033A0003246CDE9005102900E213846FFF770FAFF
:1033B00000F000FA0520FEF754FD00BF1148016837
:1033C0000F48006801F0D4FC064601F00FFA21F026
:1033D0000041044600220D4B01F0D2F987D3094881
:1033E000006807490860FEF7E5FEFEF7FBFF0848A6
:1033F0000078FFF75DF800F0DDF9BDE8FE8300001E
:103400002400002020000020CDCC4C3E0000E03FF6
:10341000190000200000C0400000E0400FB470B56B
:10342000C2B005460E4614464AA8019002A8019A69
:103430004999FCF71FFF00200190234602AA31465C
:10344000284600F02FF942B070BC5DF814FB000074
:1034500010B5002006490870FEF7ACFEFEF7C2FF6B
:1034600004480078FFF724F800F0A4F910BD00002C
:103470002E000020190000202DE9F04304460D46DF
:1034800016461F46284638E0224631E0002A2DDB4A
:103490007F2A2BDC002829DB3F2827DC4FEAE07C51
:1034A00000EB5C7C4FEAEC0CDFF8588008EBCC1C9E
:1034B0001CF802C003464FEAE07800EB58784FEA68
:1034C000E808A0EBC8094FF0010808FA09F88CEAEF
:1034D000080C01464FEAE07800EB58784FEAE8081C
:1034E000DFF8209009EBC81808F802C0511C0AB296
:1034F000A1199142CADC411C08B2E9198142C3DC1E
:10350000BDE8F0833000002070B505460C4645F05C
:10351000B00000F07BF9102141EA141000F076F9B8
:1035200004F00F0000F072F970BD000018B900211E
:10353000064A116008E0012806DB062804DC04497D
:1035400051F82010014A116070470000200000204F
:10355000D46A0008F8B506460F4614461D46082DE5
:103560000CD1A4F120000E4901EB00101023082219
:1035700039460090304600F017F80FE0062D0DD1C7
:10358000A4F1200000EB4000064901EB40000823B5
:10359000062239460090304600F006F8F8BD0000DB
:1035A000624E0008525400082DE9FF4F80460E4637
:1035B0009146DDF834B0002500244A4631464046A5
:1035C000039BFEF70BFE00BF5EE0002558E008EB12
:1035D0000500002852DB08EB05007F284EDC304652
:1035E000F11706EB5171C9100FB2F11706EB5171CB
:1035F000C910A6EBC10A002E05DA781E07B20AF13F
:1036000008000FFA80FA3819002817DB3819072844
:1036100014DC3819224901EBC01008EB0501405CAD
:1036200004FB09511BF8011001FA0AF1084339198A
:103630001B4A02EBC11108EB050288543819401CE3
:1036400000281BDB3819401C072817DC3819401CE0
:10365000134901EBC01008EB0501405C04FB095164
:103660001BF80110CAF10802114108433919491C1D
:103670000B4A02EBC11108EB05028854681CC5B265
:103680004D45A4DB601CC4B20399481EC11700EB72
:103690005171012202EBE101A14296DCBDE8FF8FEE
:1036A000300000202DE9FE4F07468A461446984612
:1036B0000025AB46002672E0605D00F0800058B93E
:1036C0004FF0010B2846691C8DB2205C8DF8040078
:1036D00000208DF8050013E04FF0020B2846691C0E
:1036E0008DB2205C8DF80400605D00B95AE0284678
:1036F000691C8DB2205C8DF8050000208DF8060055
:10370000BBF1010F0BD19DF80420B91908B2434653
:103710005146FFF71FFF06EB080086B23FE04FF06F
:1037200000090EE0C9EBC90101EB81011F4A8818AD
:1037300001A9FCF71FFE00B90EE009F101001FFA14
:1037400080F9C9EBC90101EB8101184A881818A159
:10375000FCF710FE0028E5D100BFB8F1080F12D128
:10376000C9EBC90000EB800010490844C01CB9191E
:10377000009008B210231A465146FFF715FF06F1D4
:10378000100086B20BE0B8F1060F08D1B91908B2E3
:1037900006233F225146FFF7DDFEB01D86B2605D75
:1037A000002889D100BFBDE8FE8F00008C560008BC
:1037B0000000000010B500240BE000212046FFF7B8
:1037C000A3FE054901EBC410802100F02FF8601C16
:1037D000C4B2082CF1DB10BD3000002010B5044647
:1037E00022464FF480710248FEF7F2FB10BD000044
:1037F000000C014010B5044622464FF40071024807
:10380000FEF7E6FB10BD0000000C014010B50446B9
:10381000FFF703FD7820FFF7E1FC0020FFF7DEFC57
:103820002046FFF7DBFCFFF706FD10BD70B505462F
:103830000E46FFF7F2FC7820FFF7D0FC4020FFF7A0
:10384000CDFC002404E0285DFFF7C8FC601CC4B276
:10385000B442F8DBFFF7EFFC70BD2DE9F0430546FD
:103860000C461F46079E4FF0000C00216B1E34E0F3
:1038700032F91100B04201DD012000E0002032F9F0
:103880001380B04502DD4FF0010801E04FF0000861
:1038900040451FD034F9130034F91180A0EB080023
:1038A00032F91180A6EB080800FB08F032F913800A
:1038B00032F91190A8EB090890FBF8F034F9118067
:1038C0004044B84206DDBCF1000F01D1012000E008
:1038D000002084460B46481C01B2A942C8DB0CF00C
:1038E000FF00BDE8F083704701460020034A50689E
:1038F00020F4404008435060704700000010024030
:1039000029B1064A12690243044B1A6104E0034AD2
:1039100012698243014B1A61704700000010024097
:1039200029B1064A92690243044B9A6104E0034AB2
:1039300092698243014B9A61704700000010024077
:1039400029B1064AD2680243044BDA6004E0034A14
:10395000D2688243014BDA607047000000100240D9
:1039600030B500210022002400232D4D6D6805F0A4
:103970000C0121B1042905D0082923D105E0294DE6
:10398000056022E0274D05601FE0254D6D6805F4B8
:103990007012234D6D6805F48034022505EB9242C8
:1039A0001CB9214D554305600BE01D4D6D6805F4B4
:1039B00000351DB11C4D5543056002E0194D5543BE
:1039C000056002E0174D056000BF00BF144D6D6833
:1039D00005F0F0010909154D6B5C0568DD40456097
:1039E0000F4D6D6805F4E061090A104D6B5C456888
:1039F000DD4085600A4D6D6805F46051C90A0B4DC4
:103A00006B5C4568DD40C560054D6D6805F440415F
:103A1000890B074D6B5CC568B5FBF3F5056130BDDF
:103A20000010024000127A0000093D000000002052
:103A3000100000207047000008B5002240F2255118
:103A4000094800F0F6FA25208DF8000000208DF8D6
:103A500003006846FEF76CFB0021034800F057FAAC
:103A6000014800F061FA08BD0038014070B5054614
:103A7000134890F8050300B10DB9002070BD10493E
:103A800084312846FCF708FC00240AE00C4A843202
:103A9000631C02EBC31102EBC410FCF7FDFB601CBE
:103AA000C4B2074890F80503401EA042EEDC04486B
:103AB00090F80503401E024981F805030120DDE767
:103AC0003004002000B587B001218803FFF728FFEC
:103AD00001210420FFF724FF18208DF81B004FF46C
:103AE0000070ADF8180003208DF81A0006A91F48D1
:103AF000FEF7DAF948208DF81B004FF48060ADF82E
:103B0000180006A91948FEF7CFF94FF4612002907A
:103B10000020ADF814000C20ADF812000020ADF824
:103B20001000ADF80E00ADF80C0002A9104800F02E
:103B3000A5FA012240F225510D4800F07AFA4FF41F
:103B4000A060FEF72DFB25208DF8040001208DF8E4
:103B500007008DF805008DF8060001A8FEF7E8FAC9
:103B60000121034800F0D3F907B000BD000801406F
:103B70000038014010B504462146054800F0EFFA30
:103B800000BF8021024800F01DFA0028F9D010BDC6
:103B90000038014010B5044604B910BD03E0207898
:103BA000FFF7E8FF641C20780028F8D100BFF4E795
:103BB00010B50446002240F22551224800F039FA9F
:103BC00021480470F4B1012C02D0022C31D10EE056
:103BD00000201E4908701E4908701E490870A1F88F
:103BE000820080211B48401CFCF77AFB21E000206A
:103BF00018490870A1F8820080211648401CFCF783
:103C00006FFB16E000201149087011490870114936
:103C10000870A1F8820081F8050380210D48401C3E
:103C2000FCF75EFB4FF420710A488430FCF758FB28
:103C300000BF00BF012240F22551024800F0F9F90F
:103C400010BD0000003801401400002015000020C5
:103C5000160000203004002010B500F001F810BD5F
:103C60000CB50020019000903348006840F480308B
:103C70003149086000BF3048006800F4003000900F
:103C80000198401C0190009818B90198B0F5A06FF8
:103C9000F1D12948006800F4003010B101200090F3
:103CA00001E0002000900098012843D123480068DB
:103CB00040F01000214908600846006820F0030029
:103CC00008600846006840F0020008601A48406832
:103CD000194948600846406848600846406840F412
:103CE000806048600846406820F47C1048600846C0
:103CF000406840F4E81048600846006840F0807072
:103D0000086000BF0C48006800F000700028F9D07F
:103D10000948406820F003000749486008464068A9
:103D200040F00200486000BF0348406800F00C000B
:103D30000828F9D10CBD000000100240002002400C
:103D40007047000010B51348006840F001001149A9
:103D5000086008464068104908400E494860084617
:103D600000680E4908400B4908600846006820F4C6
:103D7000802008600846406820F4FE0048604FF448
:103D80001F008860FFF768FF4FF00060044908607B
:103D900010BD0000001002400000FFF8FFFFF6FE1B
:103DA00008ED00E010B540F225514B4800F017F93E
:103DB00001287CD1484800F0CDF9C4B247480078CA
:103DC000002875D0012802D002287DD11EE0444889
:103DD0004449097800EBC1104349097844544248EA
:103DE0000078401C404908700846007880280CDBA9
:103DF000002008703B480078401C3A49087008468B
:103E00000078082801DB002008705DE03748007862
:103E100010B1012851D10DE0232C0AD101203349E2
:103E200008700020A1F8820080213048401CFCF777
:103E300057FA46E0212C29D100212C48B0F88220E5
:103E4000401C8154401E90F8050305281ADA2749C2
:103E500091F80423843101EBC2108339FCF71CFA7A
:103E6000224890F80403401C052190FBF1F201FB6D
:103E700012001E4981F80403084690F80503401C0F
:103E800081F8050300201949087015E01748B0F8BB
:103E900082007F280DDA1548B0F88210B0F8820051
:103EA000401C124AA2F88200501C445404E011E065
:103EB00009E000200D49087003E000200B4908705C
:103EC00000BF00BF00E000BF00BF40F22551024824
:103ED00000F00EF810BD0000003801401400002072
:103EE00030000020150000201600002030040020C3
:103EF00010B50022002340F66A14A14200D100BF91
:103F00000A1201249440A3B2DC43048010BD21B105
:103F1000828942F40052828104E082894DF6FF7367
:103F20001A4082817047000010B504462048844240
:103F300009D101218803FFF703FD00214FF48040E0
:103F4000FFF7FEFC32E01B48844209D101214804FE
:103F5000FFF7D6FC00214FF40030FFF7D1FC25E03D
:103F60001548844209D101218804FFF7C9FC0021CA
:103F70004FF48020FFF7C4FC18E01048844209D1B8
:103F80000121C804FFF7BCFC00214FF40020FFF71B
:103F9000B7FC0BE00A48844208D101210805FFF76D
:103FA000AFFC00214FF48010FFF7AAFC10BD000009
:103FB000003801400044004000480040004C0040F0
:103FC0000050004002460020B1F5007F00D100BF44
:103FD00013880B400BB1012000E00020704770B542
:103FE0000246002400230025002040F66A16B14254
:103FF00000D100BFC1F3421501F01F03012606FAEC
:1040000003F3012D02D19689334006E0022D02D13F
:10401000168A334001E0968A33400C12012606FAD4
:1040200004F41688344013B10CB1012000E00020E4
:1040300070BDF0B50346002400260025002040F6A0
:104040006A17B94200D100BF1846C1F3421401F00B
:104050001F06012707FA06F5012C01D10C3004E0F8
:10406000022C01D1103000E014301AB107682F4340
:10407000076002E00768AF430760F0BD2DE9F04735
:1040800086B005460E460024A24600BFA146002782
:10409000B08900B100BF2F462C8A4CF6FF70044057
:1040A000F08804432C82AC894EF6F3100440B088AB
:1040B00031890843718908430443AC81AC8A4FF6C7
:1040C000FF400440B0890443AC8201A8FFF748FCDC
:1040D0001F48874202D1DDF810A001E0DDF80CA0F6
:1040E000A88900F4004040B10AEBCA0000EB0A10B6
:1040F00031684900B0FBF1F807E00AEBCA0000EBB9
:104100000A1031688900B0FBF1F86420B8FBF0F0C8
:1041100004012009642101FB1089A88900F40040F2
:1041200040B1322000EBC900B0FBF1F000F0070015
:10413000044308E0322000EB09106421B0FBF1F0E9
:1041400000F00F0004432C8106B0BDE8F0870000AA
:104150000038014001468888C0F308007047C1F369
:1041600008028280704700BFFEE7490050EAC12084
:1041700018BF04204A0D18BF40F0010040F2FF7242
:10418000B2EB515F08BF40F00200012808BF0520D4
:10419000704730380A2801D201207047002070474C
:1041A00008B5FFF753F8FDF79DFFFDF7F3FD062374
:1041B000A6A232213020FFF775FAA64826231A4618
:1041C0000A2100903020FFF7EFF9FFF7F3FA64209F
:1041D000FDF747FE26231A460C213020FDF7FEFF8F
:1041E0009D4826231A460A2100903020FFF7DCF96B
:1041F000FFF7E0FA6420FDF734FE26231A460C216F
:104200003020FDF7EBFF954826231A460A2100903F
:104210003020FFF7C9F9FFF7CDFA6420FDF721FE42
:1042200026231A460C213020FDF7D8FF8A48262382
:104230001A460A2100903020FFF7B6F9FFF7BAFAC4
:104240006420FDF70EFE26231A460C213020FDF7D0
:10425000C5FF804826231A460A2100903020FFF728
:10426000A3F9FFF7A7FA6420FDF7FBFD26231A4602
:104270000C213020FDF7B2FF774826231A460A2189
:1042800000903020FFF790F9FFF794FA6420FDF7D3
:10429000E8FD26231A460C213020FDF79FFF6F48CA
:1042A00026231A460A2100903020FFF77DF9FFF7F8
:1042B00081FA6420FDF7D5FD26231A460C21302013
:1042C000FDF78CFF644826231A460A21009030200F
:1042D000FFF76AF9FFF76EFA6420FDF7C2FD2623A7
:1042E0001A460C213020FDF779FF5A4826231A463A
:1042F0000A2100903020FFF757F9FFF75BFA64209E
:10430000FDF7AFFDFDF756FFFFF754FA082354A25F
:104310000A210F20FFF7C6F9062355A232211E20DD
:10432000FFF7C0F9FFF746FA4FF4FA70FDF799FD71
:10433000FDF740FFFFF73EFA062351A23621002089
:10434000FFF7B0F9FEF74EF8FFF734FA4FF4967026
:10435000FDF787FD79E0FDF743FE4C4908700846FC
:1043600000784BA30622012100907A20FFF756F82F
:10437000FFF720FA4748007800285BD143480078CF
:10438000032810D144480078401C4349087008466F
:104390000078072801DB012008703F480078FFF70C
:1043A000C5F8FEF7A1FF39480078042811D13A4832
:1043B0000078002802DC072037490870364800786A
:1043C000401E3549087008460078FFF7AFF8FEF741
:1043D0008BFF2E480078012837D12F480078072816
:1043E0001DD2DFE800F01C04080C10141800012096
:1043F0002849087014E002202649087010E00320C4
:10440000244908700CE004202249087008E00520C7
:104410002049087004E006201E49087000E000BF33
:1044200000BFFDF7C7FE1B480078FEF701F9FFF754
:10443000C1F90AE015480078022802D1FFF708F810
:1044400003E014480078FEF7C7FA84E7646F726FE0
:104450005549000077680008B9670008FB66000846
:10446000455043454C4C494320B3F6C6B7000000C5
:104470005665722E312E36204261746100000000B4
:1044800057656C636F6D6521000000001800002007
:10449000256400002E0000201900002010B500291E
:1044A0000AD00878002807D005487844FBF762FF57
:1044B000002801D0002010BD0248784410BD000043
:1044C000622700005A27000010B500290AD008789A
:1044D000002807D005487844FBF74CFF002801D09E
:1044E000002010BD0248784410BD00005227000093
:1044F0004A270000491058BFC1F140415B1058BF26
:10450000C3F140438B42EFF30080704751EA030C44
:1045100017D41CF5801F58BFBCF5801F00F1068022
:10452000994218BF704708BF9042704707D711F5EE
:10453000801F58BF13F5801F19D4994270478942D4
:1045400070471CF5801F08D5BCF5801FF7D58B423E
:1045500018BF704708BF824270474FF4001C1CEB25
:10456000410F38BF1CEB430F01D28B42704770B52F
:1045700000F0B2F8922449004FF000514FF0805300
:10458000FFF7B8BFDFF848C170B51CEA111E1EBFA7
:104590001CEA13159EEA0C0F95EA0C0F00F06F80D1
:1045A00081EA030423EA4C134EEAD47E21EA4C113B
:1045B00041F4801143F48013AE44A1FB024CA0FBF4
:1045C0000365AEF17F7E361955EB0C05A1FB034C5C
:1045D0004CF10003A0FB021C16EB0C06654153F1E5
:1045E0000003094218BF46F0010613F4007F0BD107
:1045F0004FEA03314FEA0530340341EA155140EAEE
:1046000016506FF003020AE04FEAC3214FEAC520BB
:10461000F40241EA555140EA56506FF0020202EBB3
:104620002E4201EB025585EACE710AD05FEA440CB6
:1046300018BF24F0004450F1000041F1000120EACD
:10464000D47040F2FE7C624500D270BDA84214BF17
:104650004FF080444FF04044002E08BF0024BEF1CC
:10466000806FA8BFA1F1C041BDE8704080F2828098
:104670004FF0000001F1C04101F0004170479EEA97
:104680000C0F0CEA131518BF95EA0C0F06D04FF06B
:10469000000081EA030E0EF0004170BD00F01CF82E
:1046A0008900013E00F007B800F009B84FEA430C5A
:1046B0005FEA5C5C08D081EA030100F05BB84FEA76
:1046C000410C5FEA5C5CF6D14FF000000149704795
:1046D0000000FF070000F87F0EF1020E2EF0030E1F
:1046E0005EF8046B364205D4012A43EB030515F549
:1046F000001F12D8012841EB010C1CF5001F0CD83B
:104700000ED14FEAD17C15F5001F0CEB4C0C0CF1CF
:10471000020C08BF4CEBD37C04E04FF0080C01E026
:104720004FEAD37C0CEB4C0526FA05F606F007069B
:10473000B6F1040C06D20EEB860CBDE870404CF0CE
:10474000010C6047DFE80CF0090B02024FF000415A
:104750004FF00000A1F5002170BD19461046012858
:1047600051EB010418BFD4F5001484BF002001F000
:10477000004170BD0808A0F500114FEA31017047F3
:1047800053EA010C17D41CF5801F58BFBCF5801FDD
:1047900000F106808B4218BF704708BF8242704705
:1047A00007D713F5801F58BF11F5801F19D48B420E
:1047B00070479B4270471CF5801F08D5BCF5801FD1
:1047C000F7D5994218BF704708BF904270474FF421
:1047D000001C1CEB430F38BF1CEB410F01D2994268
:1047E00070470FB40CBC03BCFFF7C1BE43004FEAD7
:1047F000D30C4FEA3C0C43401FBF40070CF1605103
:1048000013F0FE4F70471CF0006F03D100200CF036
:10481000004170470CF0004343EA507010B540EA85
:10482000CC0000F028FA00BF000000924FEA00011F
:10483000FFF7A0BF4FF000414FF00000A1F50021AD
:104840007047000090EA010F48BF81F0004100F17D
:104850009682421A3CBF801A89184FEAD0524FF014
:104860007F4C1CEA410FA2EBD15318BF9CEA026FA8
:1048700000F03B804FF0004C4CEA00204CEA012154
:1048800021FA03FC10EB0C0C1ED202F1FF325FEA9E
:104890001C2040EBC25038BF70471CF07F0F4FEA1E
:1048A000400C18BFBCF17F4F38BF7047C3F12003E5
:1048B000994008BF20F00100BCF17F4F38BF70471E
:1048C000A0F1C04000F01DBA4FEA3C00000A40EBE6
:1048D000C25028BF1CF0FF0F4FEA400CE6D018BFB3
:1048E000BCF17F4F38BF7047EAE79CEA026F05D002
:1048F00010EA5C0F08BF00F00040704710B500F0F0
:10490000BAF900BF64FBBE3E401058BFC0F1404042
:10491000491058BFC1F140418142EFF30080704718
:104920004FF47F0C1CEAD0121EBF1CEAD11392EA8E
:104930000C0F93EA0C0F00F0858090EA010F48BF3E
:1049400042F4807240F4000C41F400002CF07F41EE
:1049500020F07F4000B58142A2EB03020FF2081C59
:10496000ACEB504EC0F100009EF800E04FEA4E0E56
:1049700000FB0EFC38BF49004FEA2C1C02F5FA027E
:104980000CFB0EF34FEACE1E4FEA112C4FEAC12169
:104990000EEB635E42EB22420EFB0CFC4FEA1C5313
:1049A00000FB03114FEA112C4FEA01310EFB0CFC06
:1049B0004FEADC4C00FB0C11C14228BF09184CEB3C
:1049C00003335DF804EB10EB410143EBC250B2F549
:1049D0007C0F38BF704729D512F0F00F1CBF00F1D3
:1049E000C04000F000407047008182838485868744
:1049F00088898B8C8D8E8F919293959697999A9C9E
:104A00009D9FA0A2A3A5A7A8AAACAEB0B2B3B5B70C
:104A1000B9BCBEC0C2C5C7C9CCCED1D4D7D9DCDFE2
:104A2000E2E6E9ECF0F3F7FAFE0000004FEA400C92
:104A30000CF1807CBCF17E4F28BF7047B0F1C040C4
:104A400000F05FB990EA010F0CEAD11348BF42F4BD
:104A50008072624538BF634507D213F47F0F16D0CA
:104A600080EA010000F00040704710B500F003F943
:104A7000097EFC3E00F005B880EA010000F000402D
:104A8000704780EA010000F0004000F03AB912F4EB
:104A90007F0F04BF0248704780EA010000F031B97F
:104AA0000000C07FC10DD1F19E0206DB4FEA00235A
:104AB00043F0004323FA02F07047004207D54FEA63
:104AC0004001B1F1FE4F02D24FF00000704710B527
:104AD00000F0D1F849922480002070476FEA20004E
:104AE00070470000B0FA80F310FA03F2C3F19D039F
:104AF0000AD0D90501EB1220530638BF704700F1E8
:104B0000010008BF20F001007047000050EA010CCE
:104B100000F113801CF5000F58BFBCF5000F01D445
:104B20008842704707D710F5000F58BF11F5000FE6
:104B300015D488427047894270471CF5000F04D590
:104B4000BCF5000FF7D5814270474FF0807C1CEB1D
:104B5000400F38BF1CEB410F01D28142704710B5A6
:104B600000F089F8922449004FF000504FF0805136
:104B7000FFF7CABE4FF47F0C1CEAD0121EBF1CEA1E
:104B8000D11392EA0C0F93EA0C0F00F0478090EAE1
:104B9000010F48BF42F480724FF0004C4CEA0020F5
:104BA0004CEA012102EB0302A0FB0113A2F5000273
:104BB000002918BF43F001035B0028BF4FEA33030D
:104BC00042EB22425FEA132C4CEBC2502EBFBCEBEF
:104BD000436FB2F57C0F70474FEA036CBCF1004F96
:104BE00008BF20F00100B2F57C0F38BF70470BD52D
:104BF00082F0FF0212F5803FC8BF704700F1C0404D
:104C0000D8BF00F00040704700F5000C5FEA4C0C84
:104C100048BF7047B0F1C04000F073B890EA010F90
:104C20000CEAD11348BF42F48072624538BF634535
:104C300004D280EA010000F00040704710B500F097
:104C40001AF800BF8900013E00F007B800F009B86B
:104C50005FEA410C5FEA1C6C08D080EA010000F0BA
:104C600050B85FEA400C5FEA1C6CF6D14FF0004090
:104C7000A0F5800070470EF1020E2EF0030E5EF8D4
:104C8000044B244204D44FEA4102B2F17F4F11D8C1
:104C90004FEA4003B3F17F4F0CD80ED14FEAD07CDE
:104CA000B2F17F4F0CEB4C0C0CF1020C08BF4CEB3B
:104CB000D17C04E04FF0080C01E04FEAD17C0CEB12
:104CC0004C0324FA03F404F00704B4F1040C06D2F4
:104CD0000EEB840CBDE810404CF0010C6047DFE89F
:104CE0000CF0070802024FF00040A0F5800010BD54
:104CF0000846420018BFD2F1807288BF00F0004021
:104D000010BDFF2141EAD050C005704751EA000CA8
:104D100000F113801CF5000F58BFBCF5000F01D443
:104D20008142704707D711F5000F58BF10F5000FEB
:104D300015D481427047894270471CF5000F04D595
:104D4000BCF5000FF7D5884270474FF0807C1CEB14
:104D5000410F38BF1CEB400F01D28842704780EAF8
:104D6000010081EA000180EA0100FFF7F8BE0000BF
:104D700090EA010F48BF81F000413FF56AAD421A49
:104D800004D882F00042A0EB020011444FEAD05256
:104D90004FF07F4C1CEA410FA2EBD15318BF9CEAA5
:104DA000026F4AD04FF0004C4CEA00204CEA01213F
:104DB00021FA03FCB0EB0C0C0FD412F0FE0F36D02E
:104DC0005FEA4C001DD5001240EBC25038BF70475F
:104DD0001CF03F0F18BF70470BE0A2F101025FEA21
:104DE0001C2040EBC25038BF70471CF07F0F18BF2B
:104DF0007047C3F12003994014BF401E20F001000A
:104E0000704780084FEA122308BF7047B0FA80FC51
:104E1000A2EB0C02CCF1280C60FA0CF093EA122FF2
:104E200004BF00EBC25070474FEAC3707047130ACB
:104E30005FEADC1008BF7047F6E79CEA026F04D017
:104E400010EA5C0F08BF0020704710B5FFF713FF92
:104E500040DFF63E81F000407047FBF7F8BEFCF7FC
:104E60002DB800000000000000000000000000005D
:104E70000000000000F800000000000000333000D7
:104E8000000000160E00160E0000000000000000DA
:104E9000000040C07840C0784000043F04043F0454
:104EA0000400007088FC08300000001820FF211E5C
:104EB0000000F008F000E018000000211C031E2193
:104EC0001E0000F00888700000001E21232419270E
:104ED0002110000000160E0000000000000000007D
:104EE0000000000000E01804020000000007182085
:104EF000400000020418E0000000004020180700F5
:104F00000000404080F0804040000202010F01029A
:104F10000200000000F0000000000101011F01017B
:104F20000100000000000000000000B07000000060
:104F3000000000000000000000000001010101016C
:104F400001010000000000000000003030000000FF
:104F500000000000000080601804006018060100D6
:104F6000000000E010080810E000000F10202010E2
:104F70000F00001010F8000000000020203F20204B
:104F800000000070080808887000003028242221E2
:104F90003000003008888848300000182020201198
:104FA0000E000000C02010F8000000070424243F79
:104FB000240000F808888808080000192120201122
:104FC0000E0000E0108888180000000F112020114A
:104FD0000E0000380808C83808000000003F000034
:104FE00000000070880808887000001C222121221F
:104FF0001C0000E010080810E0000000312222111F
:105000000F00000000C0C0000000000000303000B1
:105010000000000000C0C0000000000080B0700070
:105020000000000080402010080000010204081069
:105030002000404040404040400004040404040478
:105040000400000810204080000000201008040226
:105050000100007048080808F00000000030360128
:105060000000C030C828E810E000071827242314E7
:105070000B000000C038E0000000203C23020227A3
:10508000382008F8888888700000203F20202011F0
:105090000E00C0300808080838000718202020102B
:1050A000080008F808080810E000203F2020201021
:1050B0000F0008F88888E8081000203F20202320EF
:1050C000180008F88888E8081000203F2000030036
:1050D0000000C03008080838000007182020221EF1
:1050E000020008F808000008F808203F210101210B
:1050F0003F20000808F8080800000020203F20207A
:10510000000000000808F8080800C08080807F00C8
:10511000000008F888C028180800203F2001263821
:10512000200008F8080000000000203F2020202078
:10513000300008F8F800F8F80800203F003F003F72
:10514000200008F830C00008F808203F20000718A9
:105150003F00E01008080810E0000F102020201089
:105160000F0008F808080808F000203F210101019D
:105170000000E01008080810E0000F182424385040
:105180004F0008F8888888887000203F2000030CB2
:1051900030200070880808083800003820212122BB
:1051A0001C00180808F8080818000000203F20001C
:1051B000000008F808000008F808001F2020202040
:1051C0001F000878880000C83808000007380E0162
:1051D0000000F80800F80008F800033C0700073C4E
:1051E0000300081868808068180820302C03032CFE
:1051F00030200838C800C83808000000203F2000D0
:10520000000010080808C83808002038262120208F
:105210001800000000FE020202000000007F404073
:105220004000000C30C00000000000000001063803
:10523000C00000020202FE000000004040407F006B
:1052400000000020100804081020000000000000EA
:10525000000000000000000000008080808080804E
:105260008080000204080000000000000000000030
:10527000000000008080808000000019242222228B
:105280003F2008F8008080000000003F112020111E
:105290000E000000008080800000000E1120202001
:1052A0001100000000808088F800000E11202010FE
:1052B0003F200000808080800000001F22222222E8
:1052C0001300008080F0888888180020203F20206C
:1052D00000000000808080808000006B9494949394
:1052E000600008F8008080800000203F210000203E
:1052F0003F2000809898000000000020203F2020E0
:105300000000000000809898000000C08080807F2E
:10531000000008F8000080808000203F24022D302B
:105320002000000808F8000000000020203F202096
:1053300000008080808080808000203F20003F200F
:10534000003F008080008080000000203F2100207E
:105350003F200000808080800000001F202020204F
:105360001F00808000808000000080FFA1202011AD
:105370000E000000008080808000000E112020A020
:10538000FF80808080008080800020203F212000DE
:1053900001000000808080808000003324242424C9
:1053A0001900008080E0808000000000001F2020A5
:1053B00000008080000000808000001F202020105E
:1053C0003F20808080000080808000010E30080631
:1053D000010080800080008080800F300C030C3042
:1053E0000F0000808000808080000020312E0E3170
:1053F0002000808080000080808080818E70180670
:10540000010000808080808080000021302C2221DB
:10541000300000000000807C020200000000003F1D
:10542000404000000000FF00000000000000FF00FE
:1054300000000002027C800000000040403F0000AD
:10544000000000804040800000800000000000015B
:1054500001000000000000000000002F000000001C
:105460000700070000147F147F1400242A7F2A12EB
:1054700000231308646200364955225000000007DB
:10548000000000001C224100000041221C0000140A
:10549000083E08140008083E0808000000A060004C
:1054A00000080808080800006060000000201008DC
:1054B0000402003E5149453E0000427F4000004248
:1054C00061514946002141454B31001814127F10AB
:1054D000002745454539003C4A49493000017109DA
:1054E000050300364949493600064949291E00008E
:1054F0003636000000005636000000081422410035
:105500000014141414140000412214080002015164
:105510000906003E4955592E007C1211127C007F6D
:1055200049494936003E41414122007F4141221C08
:10553000007F49494941007F09090901003E41496D
:10554000497A007F0808087F0000417F4100002061
:1055500040413F01007F08142241007F404040400D
:10556000007F020C027F007F0408107F003E414153
:10557000413E007F09090906003E4151215E007F3E
:10558000091929460046494949310001017F0101B5
:10559000003F4040403F001F2040201F003F403858
:1055A000403F006314081463000708700807006197
:1055B0005149454300007F4141000002040810208A
:1055C000000041417F00000402010204004040400D
:1055D0004040000001020400002054545478007F31
:1055E0004844443800384444442000384444487F08
:1055F00000385454541800087E0901020018A4A46D
:10560000A47C007F080404780000447D4000004032
:1056100080847D00007F102844000000417F40000E
:10562000007C04180478007C0804047800384444A2
:10563000443800FC242424180018242418FC007C7E
:105640000804040800485454542000043F444020F7
:10565000003C4040207C001C2040201C003C40308E
:10566000403C004428102844001CA0A0A07C00441A
:1056700064544C440000087F41000000007F00009B
:105680000000417F0800000804081008A3AC0000D7
:10569000000000000000000000000000000000000A
:1056A000005838000000000000000000000000A1C9
:1056B000A300000000000000000000000000000047
:1056C0000000000018242418000000000000000062
:1056D0000000C4A3001010D0FF9014E4AFA4A4A451
:1056E000AFE4040000040300FF00894B2A1A0E1ADD
:1056F0002A4B888000C4E200101010FF9000F800D0
:1057000002041800FF0000000242817F00003F10E9
:105710008840300C0B30C000C1BF00202020BEAA42
:10572000AAAAAAAAAAAABE20202000008080AFAA06
:10573000AAAAFFAAAAAAAF80800000CAFD009052C0
:105740003410FF10345280708F0808F80800829AD5
:10575000566322528E008040330C33408000D7D6EF
:1057600000100C042424242526A464240404140C0E
:1057700000020202020242827F02020202020202CE
:1057800000B2A8001060020CC000F8888888FF886A
:1057900088A8180004047C0380601F80432C102814
:1057A00046818000D0CE00808282FE8282FE82828C
:1057B000802010088660008040300F0000FF00004D
:1057C00080844221100C00D3CE001060028C0008AF
:1057D000F94EC820584F48C8080004047E81403064
:1057E0000F407F0044847F040400CFB700000848C6
:1057F0008808C838404040FF2022AC20000020101C
:105800000C03041880402017182641F000B4AE00A5
:1058100000003C24242424FF242424243C000000F1
:10582000001F0909090909FF09090909091F0000E1
:10583000BFDA000000FC040404040404040404FCB3
:1058400000000000007F2020202020202020207F3A
:10585000000000B4F200101010FF109004040404C3
:10586000FC04040404000444827F01000000408022
:105870007F0000000000D3A10000FC4444444242E9
:1058800000FC04040404FC0000001F1010080808B9
:1058900000FF00081008070000B3F60000007C407D
:1058A000404040FF40404040FC000000007C404041
:1058B0004040407F4040404040FC0000C6B70000F0
:1058C00000007E424242424242427E00000000000E
:1058D000FE424242FE000000FE424242FE0000B78D
:1058E000B500404042CC0000FC24A4242222A36244
:1058F00000000040201F205847504845424548506E
:105900004000BBD8000000FE0202F2121212F202A6
:1059100002FE00000000007F2020272424242720EE
:10592000207F000000C8B7000484E45C44C4201059
:10593000E82724E4342CE00002017F10103F80604F
:105940001F09093F49897F00C8CF00404042CC0071
:1059500000000000FF0000000000000000003F9079
:105960004820180700071820408000C9CF00000019
:1059700000000000FF404040404040000000404028
:10598000404040407F404040404040404000D2BB0B
:105990000080808080808080808080808080808087
:1059A00000000000000000000000000000000000F7
:1059B00000D2B300000202F2121A16D2121212F230
:1059C000020200000080804F402018070810204F7E
:1059D00080000000CFC200020202020202FE0202A8
:1059E00042820202020200000000000000FF0000EC
:1059F00000000106000000C7D000404040FF20200A
:105A0000200404FC040404FC00000000001F0884BF
:105A1000422018074080403F0000BBBB0010101020
:105A2000FF902010E82724E4342CE000000242819B
:105A30007F00848447241C071C24478400BFAA00DD
:105A400080828282FE8282828282FE8282828000C4
:105A5000008040300F0000000000FF000000000048
:105A6000C6F400000000FC44444445464444444419
:105A70007C00004020180700FC4444444444444453
:105A8000FC0000B9D80000001011161010F0101022
:105A90001413100000008181414121110D030D11EB
:105AA000214141818100B1D50000F801222022224C
:105AB000A2FA22222202FE000000FF0008040211C6
:105AC000201F000040807F0000CBA2000000FE12DB
:105AD0001212F212121E00F00000FF00100E013F21
